:020000040800F2
:10000000F8C90020550200088B030008830300088C
:1000100087030008E5020008210500080000000031
:100020000000000000000000000000009D0100082A
:10003000E902000800000000F1010008A90400081E
:100040006F0200086F0200086F0200086F020008CC
:100050006F0200086F0200086F0200086F020008BC
:100060006F0200086F0200086F0200086F020008AC
:100070006F0200086F0200086F0200086F0200089C
:100080006F0200086F0200086F0200086F0200088C
:100090006F0200086F0200086F0200086F0200087C
:1000A0006F0200086F0200086F0200086F0200086C
:1000B0006F0200086F0200086F0200086F0200085C
:1000C0006F0200086F0200086F0200086F0200084C
:1000D0006F0200086F0200086F0200086F0200083C
:1000E0006F0200086F0200086F0200086F0200082C
:1000F0006F0200086F0200086F0200086F0200081C
:100100006F0200086F0200086F0200086F0200080B
:100110006F0200086F0200086F0200086F020008FB
:100120006F0200086F0200086F0200086F020008EB
:100130006F0200086F0200086F0200086F020008DB
:100140006F0200086F0200086F0200086F020008CB
:100150006F0200086F0200086F0200086F020008BB
:100160006F0200086F0200086F0200086F020008AB
:100170006F0200086F0200086F0200086F0200089B
:100180006F0200086F020008DFF80CD000F098F84A
:1001900000480047F9150008F8C900202A4B1968E3
:1001A0000868B0E8F04F80F30988BFF36F8F4FF015
:1001B000000080F3118870470000000006480068C6
:1001C000006880F3088862B661B6BFF34F8FBFF353
:1001D0006F8F00DF00BF00BF08ED00E0DFF80C000C
:1001E000016841F470010160704700BF88ED00E0D4
:1001F000EFF30980BFF36F8F134B1A681EF0100FD7
:1002000008BF20ED108A20E9F04F106008B44FF0CD
:10021000500080F31188BFF34F8FBFF36F8F02F050
:10022000DFFA4FF0000080F3118808BC19680868F5
:10023000B0E8F04F1EF0100F08BFB0EC108A80F34A
:100240000988BFF36F8F704734000020EFF30580FB
:10025000704700000648804706480047FEE7FEE773
:10026000FEE7FEE7FEE7FEE7FEE7FEE7FEE7FEE766
:10027000B90400088901000840EA01039B0703D084
:1002800009E008C9121F08C0042AFAD203E011F8D5
:10029000013B00F8013B521EF9D27047D2B201E097
:1002A00000F8012B491EFBD270470022F6E710B57B
:1002B00013460A4604461946FFF7F0FF204610BDD4
:1002C000064C074D06E0E06840F0010394E80700A3
:1002D00098471034AC42F6D3FFF75AFF304A000873
:1002E000504A000800BFFEE77047F0B50A460021FB
:1002F0000023002400BF3DE0012505FA01F3156845
:1003000005EA03049C4234D105684F000326BE4031
:10031000B543056015794E00B54006683543056064
:100320001579012D02D01579022D16D185684F005F
:100330000326BE40B543856055794E00B5408668BA
:1003400035438560456801268E40B5434560456864
:1003500096798E40B6B235434560C5684F00032696
:10036000BE40B543C560D5794E00B540C66835433B
:10037000C560491C1029BFD3F0BD4183704701837C
:10038000704700BFFEE700BFFEE770470249014328
:10039000024A1160704700000000FA050CED00E011
:1003A00029B1064A12680243044B1A6004E0034A6A
:1003B00012688243014B1A607047000030380240D7
:1003C0000CB50020019000903348006840F4803064
:1003D0003149086000BF3048006800F400300090E8
:1003E0000198401C0190009818B90198B0F5A04FF1
:1003F000F1D12948006800F4003010B101200090CC
:1004000001E0002000900098012844D122484030AB
:10041000006840F080502049403108601F48006863
:1004200040F440401D4908601B48083000681A49E4
:10043000083108600846006808600846006840F413
:10044000805008601648091F0860081F006840F0C7
:100450008070091F086000BF0F48006800F000703E
:100460000028F9D040F202700E4908600A480830AE
:10047000006820F003000849083108600846006859
:1004800040F00200086000BF03480830006800F038
:100490000C000828F8D10CBD003802400070004064
:1004A00010544107003C024010B502F019FE01282B
:1004B00001D002F0A9FB10BD10B51548006840F44A
:1004C0007000134908601348006840F001001149AA
:1004D000086000200F49083108600E4800680E4986
:1004E00008400C4908600D48091D0860081F006895
:1004F00020F48020091F0860002006490C310860A4
:10050000FFF75EFF4FF0006001498039086010BDC1
:1005100088ED00E000380240FFFFF6FE10300024B6
:1005200000BFFEE702E008C8121F08C1002AFAD186
:1005300070477047002001E001C1121F002AFBD163
:10054000704700002DE9F04104460D4600260027C3
:10055000B0461548005D30B9134910390868804726
:100560000120BDE8F081114850F82400A84219D9B3
:100570000F4850F82400B5FBF0F70B48001F50F867
:10058000240030F81780002608E000210648001FEC
:1005900050F82400BA1920F81210761C4645F4DBF6
:1005A0000020DEE70220DCE72C000020C434000835
:1005B000C034000810B54FF44070FFF7E7FE00F0BC
:1005C00017FD00F009FB00F0B9F810BD2DE9F04768
:1005D00004460E4600250027A9462348005D18B9A9
:1005E00021491039086880471EB94FF0FF30BDE837
:1005F000F0871E4850F82400B6FBF0F71B4850F86F
:100600002400B6FBF0F100FB116000B17F1C18481C
:1006100050F82400451E22E01348001F50F8240023
:1006200030F8150010B909F1010901E04FF0000997
:10063000B94513D14FF0000809E00B48001F50F8EE
:10064000240005EB080220F8127008F10108B845F3
:10065000F3D3064850F824006843C8E76D1E002D08
:10066000DADA4FF0FF30C2E72C000020C034000877
:10067000BC3400082DE9FC4104460D4616461F46D1
:10068000284600F069FC01208DF8040000208DF858
:10069000060003208DF8050001208DF80700009664
:1006A00069462846FFF721FE04EB8400214941F802
:1006B000205004EB840001EB80008680012004EBD5
:1006C00084011C4A02EB81014872002004EB840182
:1006D00002EB8101088204EB840102EB8101C881F5
:1006E00004EB840102EB8101488204EB840102EBFC
:1006F0008101488104EB840102EB8101888104EBD4
:100700008400114601EB80008771012004EB840115
:1007100002EB8101C87104EB840102EB81010872D4
:10072000204600F01DF804480078401C024908707B
:10073000BDE8FC814C0100201800002010B500230A
:100740004FF4007205491846FFF794FF00234FF459
:10075000806202490120FFF78DFF10BD00000240BA
:1007600010B52B490978884206DC00EB8001294A44
:1007700002EB8101097A01B910BD032827D10021BC
:1007800020E001EB8102234B03EB820292795AB9FC
:1007900001EB810203EB8202928801EB81031D4C85
:1007A00054F823305A830BE001EB8102194B03EB21
:1007B0008202928801EB8103164C54F823301A838D
:1007C0004A1CD1B2124A12789142DADD1EE000EBE7
:1007D0008001104A02EB8101897959B900EB80014F
:1007E00002EB8101898800EB80020A4B53F822203A
:1007F00051830BE000EB8001064A02EB81018988FE
:1008000000EB8002034B53F82220118300BFB3E7B3
:10081000180000204C01002010B52B4909788842AF
:1008200006DC00EB8001294A02EB8101097A01B95B
:1008300010BD032827D1002120E001EB8102234BCA
:1008400003EB820292795AB901EB810203EB820237
:10085000928801EB81031D4C54F823301A830BE07E
:1008600001EB8102194B03EB8202928801EB8103B9
:10087000164C54F823305A834A1CD1B2124A1278CB
:100880009142DADD1EE000EB8001104A02EB8101AB
:10089000897959B900EB800102EB8101898800EB6D
:1008A00080020A4B53F8222011830BE000EB8001F9
:1008B000064A02EB8101898800EB8002034B53F862
:1008C0002220518300BFB3E7180000204C01002014
:1008D0002DE9F04104460E461746984600250EB90C
:1008E000BDE8F081032C39D1002532E005EB85000D
:1008F000374901EB8000007A00B928E005EB85005C
:10090000334901EB8000468105EB850001EB800057
:10091000878105EB850001EB8000A0F80E800020A8
:1009200005EB85012A4A02EB8101088205EB85016E
:1009300002EB8101487205EB850102EB81014882DF
:10094000012005EB850102EB8101C87100BF681C25
:10095000C5B2204800788542C8DB33E01D480078E6
:10096000844206DC04EB8400194901EB8000007A24
:1009700000B9B5E704EB8400154901EB800046811E
:1009800004EB840001EB8000878104EB840001EB21
:100990008000A0F80E80002004EB84010C4A02EBDA
:1009A0008101088204EB840102EB8101487204EBAF
:1009B000840102EB81014882012004EB840102EBF7
:1009C0008101C8712046FFF727FF00BF88E70000BC
:1009D0004C0100201800002010B5002400BFA8E042
:1009E00004EB8400564901EB8000C07928B104EB88
:1009F000840001EB8000808900B998E004EB84005A
:100A00004F4901EB8000407A58BB04EB840001EBB6
:100A100080008089002823DD04EB840001EB800046
:100A2000008A401C80B204EB8401454A02EB81013C
:100A3000088204EB840102EB81014989884275DB5D
:100A40002046FFF78DFE002004EB84013C4A02EBB8
:100A500081010882012004EB840102EB81014872CC
:100A600064E004EB8400364901EB8000407A012801
:100A70005CD104EB840001EB8000008A401C80B252
:100A800004EB84012E4A02EB8101088204EB84010D
:100A900002EB81018989884248DB04EB840011461E
:100AA00001EB8000C089002831DD04EB840001EBFC
:100AB0008000C0894FF6FF71884228D004EB840083
:100AC000114601EB8000408A401C80B204EB840197
:100AD00002EB8101488204EB840102EB8101C989A8
:100AE000884205DB002004EB840102EB8101C87120
:100AF00004EB8400124901EB8000C07938B9002072
:100B000004EB84010E4A02EB810188810FE0002092
:100B100004EB84010A4A02EB8101088204EB8401A0
:100B200002EB810148722046FFF776FE00BF601C91
:100B3000C4B20448007884427FF752AF10BD000071
:100B40004C0100201800002070B504460E46002518
:100B500031462046FFF73AFD05466FF0704085426A
:100B600001D1002070BD024850F824002844F9E764
:100B70002400002070B505460C46002604B970BD5F
:100B8000044850F82500261A31462846FFF7DAFCBB
:100B900000BFF4E72400002010B501460023002226
:100BA00000BF07E00A4850F8210030F8120000B1F9
:100BB0005B1C521C074850F821009042F2D8642078
:100BC0005843044C54F82140B0FBF4F0C0B210BDBF
:100BD00028000020BC34000800B5094909684A0013
:100BE0000849C868002100F011F807490A6805495A
:100BF0008868002100F00AF801200249087400BD4D
:100C0000BC3400081C000020C434000830B5034682
:100C100001E003F8011B141EA2F10102F9D130BD5D
:100C200070B500240CE0002506E00020074901EB28
:100C3000C5010855681CC5B2802DF6DB601CC4B226
:100C4000082CF0DB00F014F970BD00008C020020CD
:100C5000F0B5144600267F2801DC3F2900DDF0BDF9
:100C60000B46CF1701EB5777FF10C7F10707FAB212
:100C7000CF1701EB5777FF10A1EBC707FDB2C5F106
:100C800007070123BB40DEB24CB10A4B03EBC003A4
:100C90009B5C3343074F07EBC007BB5408E0054B91
:100CA00003EBC0039B5CB343024F07EBC007BB548D
:100CB00000BFD4E78C0200202DE9F04706460F461E
:100CC00090469946DDF820A034460CE03D4606E00B
:100CD000524629462046FFF7BBFF681CC5B24D456A
:100CE000F6DD601CC4B24445F0DDBDE8F0870000CD
:100CF0001CB51A4800F030F9184800F02DF91848D2
:100D000000F02AF9154800F027F901208DF80400B9
:100D100000208DF8060001208DF8070003208DF8D3
:100D200005004FF48050009069460C48FFF7DDFA4B
:100D30004FF40050009069460848FFF7D6FA4FF488
:100D40008060009069460548FFF7CFFA8020009048
:100D500069460348FFF7C9FA1CBD000000040240C1
:100D60000000024010B5FFF7C3FF4FF480613F4819
:100D7000FFF705FB642001F0ABFB4FF480613B48BB
:100D8000FFF7FBFA642001F0A3FB4FF480613748C2
:100D9000FFF7F5FA0021AE2000F0A8F80021D520D9
:100DA00000F0A4F80021502000F0A0F80021A820B5
:100DB00000F09CF800213F2000F098F80021D3209B
:100DC00000F094F80021084600F090F8002140203F
:100DD00000F08CF800218D2000F088F8002114200C
:100DE00000F084F80021202000F080F8002108465F
:100DF00000F07CF80021A02000F078F80021CF203E
:100E000000F074F80021DA2000F070F800211220C0
:100E100000F06CF80021812000F068F80021EF203C
:100E200000F064F80021D92000F060F80021F120E2
:100E300000F05CF80021DB2000F058F800213020A1
:100E400000F054F80021A42000F050F80021A62062
:100E500000F04CF80021AF2000F048F8FFF7E0FE6A
:100E60000021084600F02AF810BD000000040240EE
:100E700070B500241CE004F1B001C8B2002100F0FC
:100E800035F80021084600F031F80021102000F06C
:100E90002DF8002508E0084901EBC501085D402157
:100EA00000F024F8681CC5B2802DF4DB601CC4B2CD
:100EB000082CE0DB70BD00008C02002070B50446F9
:100EC0000D4605F1B001C8B2002100F00FF8102165
:100ED00041EA1410002100F009F804F00F0141F07C
:100EE0000100002100F002F870BD000070B504465A
:100EF0000E4626B180211648FFF741FA03E0802113
:100F00001348FFF73AFA00251BE04FF4005111484F
:100F1000FFF733FA04F0800028B14FF480510D48F8
:100F2000FFF72DFA04E04FF480510A48FFF725FA45
:100F30004FF400510748FFF722FA6006040E681CC0
:100F4000C5B2082DE1DB80210148FFF718FA70BD1A
:100F5000000002400004024070B50446204600F044
:100F600005F805460121FFF71BFA70BD0146002078
:100F7000164A914201D1012026E0154A914201D141
:100F8000022021E0134A914201D104201CE0124AC0
:100F9000914201D1082017E0104A914201D110205E
:100FA00012E00F4A914201D120200DE00D4A9142FA
:100FB00001D1802008E00C4A914201D1881503E05C
:100FC0000A4A914200D140207047000000000240D0
:100FD0000004024000080240000C024000100240E1
:100FE00000140240001C0240002002400018024091
:100FF00010B5002000BF1BE0002200EB8003194C5D
:1010000004EB83035A6000EB800304EB83039A60D4
:1010100000EB800304EB83035A7000EB800304F8B9
:10102000232000EB800304EB83031A61421CD0B23F
:101030000828E1DB0C4A12680C4BB2FBF3F14FF4C9
:101040007A7251434FF0E022126942F002024FF0EF
:10105000E0231A611A465161126942F002021A61D4
:1010600010BD0000AC0000200400002040420F0032
:101070002DE9F84F05460E4617469846DDE90AABBE
:10108000DDF8309000200090B9F1000F01D1BDE8EB
:10109000F88F10210020FFF757FD04460CB90020FF
:1010A000F5E725806680A780A4F8068000202073DD
:1010B000C4F808B01220A0730AF0FF024B46214684
:1010C000002001F0BDFB00B20090009880B2DEE786
:1010D00010B50446208810B96FF0010010BD2046FD
:1010E00001F0F7FBFAE700002DE9F843044600257C
:1010F0000026A07B00F0010020B3A07B00F00800D8
:1011000010B10125012672E0A07B00F0100058B15B
:1011100001255549087A00F0F7F8E1880F1A07EB26
:10112000D770401006B262E0A07B00F020000028DB
:101130005DD001254C49087A00F0E6F8E188081AEC
:1011400006B254E0A07B00F00400B8B3A07B00F02E
:10115000080060B1607B00F0BFF80746A06800F0AF
:1011600038FAA18807FB101005B201263FE0A07BEA
:1011700000F01000A8B1607B00F0AEF80746A06850
:1011800000F027FAA18807FB101005B23649087A4B
:1011900000F0BAF8E1880F1A07EBD770401006B2DA
:1011A00025E0A07B00F0200008B301252E49087A35
:1011B00000F0AAF8E188081A06B218E0FFE7607BA1
:1011C00000F08AF88046A06800F003FAA18808FBC6
:1011D000101707EBD770401005B22349087A00F0CA
:1011E00093F8E1880F1A07EBD770401006B2207B06
:1011F000E0B1012000906788B4F806C06744BBB234
:101200002788B4F804C06744BAB26188208800F027
:1012100063F96288324491B222882A4490B200F085
:10122000E3F90121A06800F0FFF81BE00120009025
:101230006788B4F806C06744BBB22788B4F804C016
:101240006744BAB26188208800F085F96288324428
:1012500091B222882A4490B200F0C6F90021A06819
:1012600000F0E2F8BDE8F883ECC50020704700000C
:10127000014621B1012905D0022909D105E005481F
:101280008078704704488078FBE704488078F8E766
:1012900000BFF6E7184A0008204A0008284A00085C
:1012A000024622B1012A06D0022A0CD107E00748E3
:1012B0004068405C704706484068405CFAE7054873
:1012C0004068405CF6E700BFF4E70000184A0008F9
:1012D000204A0008284A0008014621B1012905D00A
:1012E000022909D105E005480078704704480078D4
:1012F000FBE704480078F8E700BFF6E7184A000863
:10130000204A0008284A0008014621B1012905D0D9
:10131000022909D105E00548407870470448407823
:10132000FBE704484078F8E700BFF6E7184A0008F2
:10133000204A0008284A000810B500F00CF801F017
:10134000E7FB10BD10B5FFF793FD10BD10B50020F1
:1013500000F035F910BD10B5FFF704FDFFF760FC94
:1013600010BD00002DE9FE4F07460C4600200290FC
:1013700080468146824600258346002601900090E3
:101380002849087AFFF7C0FF02902649087AFFF73C
:101390006FFF8046234890F804A080798346054675
:1013A000A7F1200000FB08F080B2009000BF35E0FC
:1013B000009A324491B21B4A107AFFF771FF8146BE
:1013C0000020019025E009F0800028B1224629463E
:1013D000504600F077F808E00CB9012000E000204A
:1013E00002462946504600F06DF84FEA49604FEA40
:1013F0001069681CC5B2A5EB0B010298814205D1AA
:101400005D460AF1010000F0FF0A05E00198401C6A
:10141000019001980828D6D300BF761C4645C7D353
:10142000BDE8FE8FECC500202DE9F04104460E46D4
:10143000002500271549087AFFF74EFF0546134996
:10144000087AFFF761FF07461BE01048B0F9040077
:1014500028447F280EDA14F8010B3146FFF782FF8B
:101460000A4AD28891B2094A92882A4490B200F07E
:10147000BBF806E00548C088384481B2002000F07F
:10148000B3F820780028E0D1BDE8F081ECC5002059
:101490002DE9F04104460E4615461F464FF0000860
:1014A000AC4203DD05F0FF082546444600BFF1B21B
:1014B000E0B23A4600F006F8601C84B2A542F6DAC3
:1014C000BDE8F08170B504460D4616463246294601
:1014D0002046FFF7BDFB70BD2DE9F04106460F46E3
:1014E00015461C46DDF8188043462A4639463046E4
:1014F000FFF7CEFF43462A4621463046FFF7C8FF96
:10150000434622463946304600F008F84346224614
:101510003946284600F002F8BDE8F0812DE9F04197
:1015200006460C4615461F464FF00008AC4202DD49
:10153000A8462546444600BFE1B2F0B23A46FFF75E
:10154000C1FF601C84B2A542F6DABDE8F08110B597
:1015500001F01CFB10BD2DE9F04706460C4617466E
:101560001D46DDF820904FF00008BE4207D14B46E3
:101570002A4621463046FFF7D1FFBDE8F087AC424E
:1015800006D14B463A4621463046FFF781FFF4E745
:10159000BE4202DDB0463E464746AC4202DDA046B2
:1015A0002C46454600BF4B463A4621463046FFF79B
:1015B0006FFF601C84B2AC42F5DD00BFDDE738B5DB
:1015C00004463F237F22002108460094FFF774FB66
:1015D00038BD0146002001E0421C90B211F8013BE9
:1015E000002BF9D17047000002B2024B9A800AB278
:1015F000DA807047ECC500201CB500F01FF8012010
:1016000000F040F8FEF7D6FF064802210023CA0189
:10161000CDE9001004A1074801F032FD01F0A0F867
:1016200000BFFEE700000020537461727420546113
:10163000736B000021210008704700001CB50F48A3
:10164000007800B11CBD0E48FFF786FC01208DF824
:10165000040000208DF8060001208DF8070003200B
:101660008DF805002020009069460548FEF73DFEF4
:1016700001200249087000BFE4E7000030000020AC
:101680000000024010B504460748007808B9FFF78B
:10169000D5FF24B920210548FEF76FFE03E0202185
:1016A0000248FEF76CFE10BD300000200000024032
:1016B000704700002DE9F04105460E461C480768BA
:1016C0001C480068001D00F021FE50B91948006850
:1016D00090F82C100120884017490968814316486A
:1016E0000160681C38B936B112480168091D1348F9
:1016F00000F055FE1AE07C190E4800684460BC42B8
:1017000007D20C480168091D0D48006800F02DFE45
:101710000CE008480168091D0A48006800F025FE31
:1017200009480068844201D207480460BDE8F0819E
:1017300048000020340000204C000020B04D002064
:101740003C000020380000206400002010B5044652
:1017500000F032FE24480068401C234908602348FA
:10176000006840B9214804600846006801280DD18E
:1017700000F0BEF90AE01E48006838B91B4800684E
:10178000C06AE16A884201D81848046019480068B4
:10179000401C1849086008460068606494F82C10E2
:1017A0000120884014490968084313490860E16A28
:1017B00001EB8101114A02EB8100211D00F0EFFDD8
:1017C00000F00CFE0A48006868B108480068C06A6A
:1017D000E16A884207D24FF0805009490860BFF3A0
:1017E0004F8FBFF36F8F10BD4400002034000020E6
:1017F00050000020600000204C000020E04A002043
:1018000004ED00E010B500F0D7FD10480068D0B935
:101810000F4800F09AFD0F4800F097FD0C480E4964
:1018200008600C480D49086000221021142001F0C6
:1018300005FA064908600846006820B108A1034877
:10184000006800F009FE00F0C9FD10BD780000201E
:10185000C44D0020D84D00207000002074000020EE
:10186000546D72510000000070B523E000F0B0FF2D
:101870001348006808B9012000E00020054601F087
:1018800055FDBDB900F098FD0D48C068C468201D25
:1018900000F03CFD0B480068401E0A4908600A48F9
:1018A0000068401E0849086000F098FD204600F0DE
:1018B00060F800BF044800680028D7D170BD000060
:1018C0009C4D0020440000204000002070B50446DC
:1018D0000D46206C70B1216CE0680844E0606168DE
:1018E000E068884201D32068E0602846226CE16805
:1018F000FEF7C2FC70BD2DE9F04104460F461546C7
:101900004FF00008A66B206C40B9206860BB60688F
:1019100001F08AFC80460020606025E07DB93946F0
:10192000226CA068FEF7A8FC216CA0680844A060A7
:10193000D4E90110884217D32068A06014E039462A
:10194000226CE068FEF798FC216CE068401AE060C9
:101950002168E068884203D2216C6068401AE06028
:10196000022D01D106B1761E701CA0634046BDE871
:10197000F08110B50446206B00F040FD204600F0D9
:101980003DFD10BD0146084A126812680AB90122DD
:1019900000E000220A600A6822B9034A1268D2688D
:1019A000106800E0002070477000002030B54FF450
:1019B000F043174800F007042CB1C01D20F00700C9
:1019C000134C041B1B1B0246124C22600024114DB9
:1019D0006C60D018083820F007000F4C20600024FD
:1019E0000D4D2D686C600C4D2D682C601146441A0D
:1019F0004C60094C24680C60084D4C682C60084D04
:101A00004C682C604FF00044064D2C6030BD000047
:101A1000EC4D0020840000208C0000209400002069
:101A2000900000209800002000BFFFF71DFFFCE79A
:101A30002DE9F04106460D4617469846069C0DB91D
:101A4000246000E02760E66325640121204601F060
:101A5000BFF984F850800020A064BDE8F0812DE932
:101A6000F05F81460F4690469A460A9E0C9C4FEACC
:101A70008801A522206BFEF711FCA8F10100216B63
:101A800001EB800B2BF0070B002507E0795D04F1DB
:101A900034004155785D00B902E06D1C102DF5D37E
:101AA00000BF002143200155202E00D31F26E662EF
:101AB000E66400202065201D00F054FC04F11800AD
:101AC00000F050FC2461C6F12000A0616462002097
:101AD0006065A06584F85C0052464946584600F0AF
:101AE000FBFA20600B9808B10B980460BDE8F09FEA
:101AF00010B5002407E004EB84010F4A02EB8100DB
:101B000000F023FC641C202CF5D30C4800F01DFCD5
:101B10000B4800F01AFC0B4800F017FC0A4800F0D4
:101B200014FC0A4800F011FC044809490860044804
:101B30000849086010BD0000E04A0020604D002008
:101B4000744D0020884D00209C4D0020B04D002099
:101B5000380000203C00002010B50146164800E087
:101B6000006803688B42FBD30246436813448B42F0
:101B700004D143684C682344436001460A464B68DD
:101B800013440468A34211D10C4C03682468A34297
:101B900008D04B680468646823444B6003681B6882
:101BA0000B6005E0054B1B680B6001E003680B60F0
:101BB000884200D0016010BD840000208C0000200D
:101BC0002DE9F04104460D4616461F464FF0000829
:101BD00065602461B5420CD8F01BA169884202D32C
:101BE0004FF0010811E0211D0948006800F0BDFB1D
:101BF0000BE0BE4204D2BD4202D34FF0010804E024
:101C0000211D0448006800F0B0FB4046BDE8F081AB
:101C1000740000207000002070B5054600F0CCFB79
:101C2000A86B08B9012400E0002400F0D7FB20468F
:101C300070BD70B5054600F0BFFBA86BE96B88422C
:101C400001D1012400E0002400F0C8FB204670BD53
:101C50002DE9F3410D460098846C0027A06BE16BE1
:101C600088421BD294F945602A4669462046FFF710
:101C700042FE0746701C60B9606A08B9012000E0A6
:101C8000002050B904F1240001F010FB28B1012715
:101C900003E0701C40B284F8450000BF3846BDE840
:101CA000FC810000F8B505460E4610480068C06883
:101CB000C468201D00F02AFBE069012811D1A06949
:101CC00041192B4632462046FFF77AFF48B10020E3
:101CD00003462A4601460090204601F0B9FB07461C
:101CE00000BF2046616A8847F8BD000070000020F0
:101CF000F0B587B056E00398002805DA04AED6E9BF
:101D00000020B168904700BF039800284ADB059C7B
:101D1000606908B9012000E0002010B9201D00F022
:101D2000F5FA02A800F0A0F8054603980A2837D271
:101D3000DFE800F00905072527320608262800BF3E
:101D400000BF00BF00BF0498A269811803462A465D
:101D50002046FFF735FF88B12046616A8847E06971
:101D600001280BD1002000900498A169421800239B
:101D70001946204601F06CFB074600BF11E000BF8A
:101D80000FE000BF0498A061A06941192B462A46C4
:101D90002046FFF715FF04E0204600F02FFB00E08F
:101DA00000BF00BF00231A4603A90448006800F0E2
:101DB00061FF00289FD107B0F0BD0000780000202F
:101DC000F8B505460C4600F003FD684600F04CF8F7
:101DD0000646009820BB44B9B54206D801F0A6FAE1
:101DE00031462846FFF75EFF1CE03CB10E48006814
:101DF000006808B9012000E000200446A91B224623
:101E00000A48006800F03EFB01F090FA50B94FF02C
:101E1000805007490860BFF34F8FBFF36F8F01E019
:101E200001F084FAF8BD0000740000207800002062
:101E300004ED00E00A490968096809B9012100E0D8
:101E4000002121B14FF0FF31064A116006E004493C
:101E50000968C968C868034A416811607047000092
:101E6000380000206400002070B5044601F048F9F5
:101E7000054607480068854204D200F00BF80120AF
:101E8000206001E00020206001480560284670BD08
:101E9000800000202DE9F84326E01D480068C06856
:101EA00005681B480068C068C468201D00F02EFA51
:101EB0002046616A8847E069012815D1A069461962
:101EC000AE4207D966602461211D1148006800F008
:101ED0004CFA09E0002003462A46014600902046BD
:101EE00001F0B6FA804600BF09480068006808B9EA
:101EF000012000E000200028CFD0054807680548F1
:101F000000680349086003480760BDE8F8830000E3
:101F1000700000207400002000BF502080F3118862
:101F2000BFF34F8FBFF36F8F00BF00BFFEE708B551
:101F300000BF6846FFF726FD044620460099FFF7DC
:101F40003FFFFFF7D5FEF4E770B5044600F034FA22
:101F500094F945501AE0A06C38B100212046FFF7F3
:101F600077FE88B100F06EFB0EE0606A08B90120D0
:101F700000E0002038B904F1240001F097F918B10D
:101F800000F060FB00E003E0681E45B2002DE2DCDB
:101F900000BFFF2084F8450000F020FA00F00CFAA2
:101FA00094F9445010E0206908B9012000E00020B5
:101FB00048B904F1100001F079F908B100F042FBD2
:101FC000681E45B200E001E0002DECDC00BFFF2000
:101FD00084F8440000F002FA70BD00002DE9F041E1
:101FE00005464FF0000800F0F3FB2E48006808B9E2
:101FF000FFF7DCFC2C4800682840002847D145B199
:10200000083505F0070020B105F00700C0F1080011
:102010000544002D3BD025480068854237D8244E22
:102020003046046801E0264624686068A84202D26F
:1020300020680028F7D11B480068844227D0306808
:1020400000F10808206830606068401B102807D93C
:1020500067196068401B786065603846FFF77CFD53
:10206000124960680968081A104908600846006843
:1020700010490968884203D20C4800680D4908607D
:10208000094960680968084360600020206001F029
:102090004DF9B8F1000F01D100F04CF94046BDE810
:1020A000F08100008C0000209800002090000020AB
:1020B00084000020940000200648006830B10549E3
:1020C000096801F15000096D491C01600148006870
:1020D0007047000034000020001F4FF08073036041
:1020E000001F21F001030360001F054B036014383B
:1020F0000260001F6FF00203036020387047000089
:10210000191F0008704708B500BF00F0F9FF0090E4
:1021100005E0FEF761FC0521684600F0F3F9F8E7F9
:102120001CB5044600F048F94FF6FF733222052132
:102130000320FEF7CDFB0020022103468022CDE9DB
:1021400000100AA10C4800F09BFF00200421034668
:102150008A01CDE9001009A10C4800F091FF0C485C
:10216000006800F009FA00F039F91CBD4C45442024
:102170005461736B0000000007210008446973700C
:102180006C6179205461736B000000009521000898
:10219000000000208CB000BF0124002007900690B2
:1021A00005900490039000BFFFF7C6F801203F237D
:1021B0007F2200210090084600F034FC0B900020A4
:1021C0003F237F220146009000F02CFC0A90002063
:1021D0003F237F220146009000F024FC099000205C
:1021E0003F237F220146009000F01CFC0890BDF9BF
:1021F000200007213FA23F23CDE9002102907F224A
:102200000021084600F0C6FB06A8FEF761FF05A8FE
:10221000FEF75EFF04A8FEF75BFF0BA800F038FC9A
:102220000AA800F035FC09A800F032FC08A800F06C
:102230002FFC5EE0FFF78BF9002C47D0BDF92000A2
:102240002DA102221423CDE9002102901A461E215D
:102250000520FEF70DFF0790BDF9200027A10322FE
:102260001423CDE9002102901A461E210846FEF7EC
:10227000FFFE0690BDF9200021A104221423CDE920
:10228000002102901A461E213720FEF7F1FE05902C
:10229000BDF920001BA105221423CDE900210290E5
:1022A0001A461E215020FEF7E3FE0490BDF92000DF
:1022B00015A106221423CDE9002102901A461E2101
:1022C0006920FEF7D5FE039000240FE007A8FEF773
:1022D000FFFE06A8FEF7FCFE05A8FEF7F9FE04A81F
:1022E000FEF7F6FE03A8FEF7F3FE0124052000F03A
:1022F000EFF89FE76F6B0000410000004200000014
:1023000043000000440000004500000001460A6947
:10231000D1E901309860D1E90103586050688842E2
:1023200001D188685060002008611068401E10606C
:102330001068704700BF502080F31188BFF34F8FA3
:10234000BFF36F8F00BF00BFFEE700F108014160DF
:102350004FF0FF31816000F10801C160016100218F
:102360000160704700210161704710B502460B689B
:102370005C1C0CB9106907E002F1080000E040683D
:10238000446824689C42FAD944684C604C68A16057
:10239000886041600A611468641C146010BD426862
:1023A0004A6093688B609368596091600861036824
:1023B0005B1C03607047000000BF502080F3118851
:1023C000BFF34F8FBFF36F8F00BF03480068401CFF
:1023D00001490860704700009C0000200648006822
:1023E000401E054908600846006820B9002080F3B7
:1023F000118800BF00BF70479C00002070B50646E2
:102400003546D6B1083D2C460C496068096808403D
:1024100098B1206888B90949606809688843606094
:1024200000F0D6F906496068096808440449086064
:102430002046FFF791FB00F079FF70BD9800002067
:102440009000002003484FF0E02148610720086118
:10245000704700001F480100024600200BE0084BB7
:1024600053F8303033B9064B43F8301003EBC00358
:102470005A6002E0401C0A28F1D300BF70470000F8
:10248000904A00202DE9F04105460E4617462C469D
:10249000FFF792FF94F94400401C10B9002084F823
:1024A000440094F94500401C10B9002084F8450010
:1024B000FFF794FFA06B28B93A46314604F1240097
:1024C00000F0D6F82046FFF73FFDBDE8F0810000A0
:1024D00070B50446002544B100F07AF90021204689
:1024E000FFF7E8F800F022FF05463DB94FF08050B5
:1024F00003490860BFF34F8FBFF36F8F70BD0000BB
:1025000004ED00E02DE9F047044688464FF000094D
:1025100000F05EF916480668206800EB08052068A0
:10252000B04207D92068A8420BD9B54209D94FF06B
:10253000010906E02068A84201D8B54201D94FF050
:1025400001092560B9F1000F03D0A81B0021FFF796
:10255000B1F800F0EBFE07463FB94FF08050054957
:102560000860BFF34F8FBFF36F8FBDE8F0870000A7
:102570004800002004ED00E070B50546FFF71CFFA1
:1025800015B92748006800E028460446201DFFF7DB
:10259000BDFE78B9E06A00EB8000224951F82000C6
:1025A00040B994F82C10012088401F4909688143E4
:1025B0001D480160A06A18B104F11800FFF7A6FEDB
:1025C0001A480068401C1949086015480068844290
:1025D00009D1211D1648FFF7E2FE16480068401C8D
:1025E0001449086009E014480068401E1249086058
:1025F0002046FFF7BEF9FFF71DFCFFF7EFFE0F487F
:10260000006858B106480068844207D14FF08050F6
:102610000B490860BFF34F8FBFF36F8F70BD000091
:1026200034000020E04A00204C0000206000002020
:102630009C4D00204000002044000020500000205D
:1026400004ED00E0012001490860704758000020B7
:1026500070B505460C460548016818312846FFF755
:1026600084FE01212046FFF725F870BD34000020CC
:1026700070B506460D4614460648016818313046C6
:10268000FFF78DFE0CB14FF0FF3521462846FFF7CE
:1026900011F870BD3400002070B505462C46002DA1
:1026A0004BD02649E06A0968C96A884245D2A069C8
:1026B00000F0004028B921480068C06AC0F120003D
:1026C000A061E16A01EB81011D4A02EB81016069B1
:1026D000884201D1012000E0002050B3201DFFF707
:1026E00015FE78B9E06A00EB8000154951F820002A
:1026F00040B994F82C1001208840124909688143A0
:10270000104801600D480068C06AE06294F82C101F
:10271000012088400B49096808430A490860E16ABA
:1027200001EB8101064A02EB8100211DFFF737FE14
:1027300003E002480068C06AE06270BD3400002017
:10274000E04A00204C000020034909680160034969
:1027500009684160704700005C00002048000020CC
:102760001CB5144800210B469622CDE9001012A199
:10277000134800F085FC0446012C02D100F04AFE0B
:102780000446012C14D100BF502080F31188BFF300
:102790004F8FBFF36F8F00BF4FF0FF3009490860C4
:1027A00001200949086000200849086000F008FA83
:1027B0001CBD00006800002049444C45000000009A
:1027C000291A000864000020500000204800002062
:1027D00002480068401C0149086070476C000020F6
:1027E0001248006818B10120114908601DE000205E
:1027F0000F4908600F480068B0FA80F0C0F11F016F
:1028000001EB81020C4B03EB82004268526842608C
:1028100000F108024368934202D142685268426064
:102820004268D268054B1A6000BF70476C000020F8
:10283000580000204C000020E04A00203400002016
:102840002DE9F04706460D4692461F460024A14654
:10285000A04617B90020BDE8F0870DB90020FAE7BF
:102860000C210020FEF770F904460CB90020F2E7B5
:1028700026704AEA0720608000206060062E10D291
:10288000DFE806F00307090B0D05A56009E0A56068
:1028900007E0A56005E0A56003E0A56001E0A56094
:1028A00000BF00BF4146384600F05AF9D8F818007A
:1028B00010B9C8F818400AE0D8F8189001E0D9F823
:1028C0000490D9F804000028F9D1C9F804406088C0
:1028D000C1E72DE9F041054600260024002729889C
:1028E0000812394600F03CF917B9A01EBDE8F08186
:1028F000B8690646044670882988884202D1706803
:10290000B8610DE0746808E060882988884202D1C7
:102910006068706003E026466468002CF4D100BF54
:102920004CB10020A168FEF725F921460020FEF7F2
:1029300021F9002028800020D8E770B5044604B9AA
:1029400070BD2078062822D2DFE800F0030D1217B0
:102950001C08A5682846FEF7C7FB18E0A5682846AE
:10296000FEF784FC13E0A5682846FEF765FE0EE03E
:10297000A5682846FEF79CFE09E0A5682846FFF7F3
:10298000C1FB04E0A568284600F02EF800BF00BF98
:1029900000BFD5E72DE9F05F05460E46174698467D
:1029A000DDE90AABDDF830900024B9F1000F02D167
:1029B000A01EBDE8F09F10210020FEF7C5F80446D8
:1029C00014B94FF0FF30F4E725806680A780A4F8A3
:1029D0000680C4F808A00BF0FF024B4621460420F5
:1029E000FFF72EFF00B2E4E7F8B50446012000909F
:1029F0002588A6883544AAB265880E35ABB26188B1
:102A00002088FEF7A8FD012000906588E6883544FF
:102A1000ABB22588A6883544AAB261882088FEF723
:102A20005BFDF8BD2DE9F04705460E461746984672
:102A3000DDF8209020210020FEF786F804461CB91E
:102A40004FF0FF30BDE8F08725806680A780A4F8AE
:102A500006800020A082E061A4F81290A0612046C8
:102A600000F064F808480088401C074908800748BF
:102A70000088401C054908800846008800B2208272
:102A8000B4F91000DEE70000A0000020A200002042
:102A900070B5054615B96FF0010070BD0026002421
:102AA0001A4800680646044618480068B0F9100045
:102AB000B5F90010884206D1144804680068C0695E
:102AC0001249086011E011480068C4690AE0B4F9CD
:102AD0001000B5F90010884202D1E069F06103E00E
:102AE0002646E469002CF2D100BF64B1A06918B198
:102AF000A169881CFFF7EDFE21460020FEF73AF899
:102B000000202880C9E74FF0FF30C6E7A80000206A
:102B100008B501203F237F22002100900846FFF7DF
:102B200081FF0149088008BDA4000020014611B9B9
:102B30004FF0FF307047488A28B108480068C861E4
:102B40000648016006E005480068C069C86103489E
:102B50000068C161B1F91000ECE70000A800002096
:102B600002460948016812B96FF00100704705E09C
:102B7000B1F91000904200D102E0C9690029F7D1F3
:102B800000BF0020F2E70000A800002070B500257B
:102B900000240A48056805B970BDFEF7D7FBA8698F
:102BA00038B1AC6903E02046FFF7C7FE6468002C2B
:102BB000F9D1FEF7C7FB00BFEEE70000A800002038
:102BC00010B50E48006840F470000C4908600846D3
:102BD000006840F070400860FFF734FC00200849AE
:102BE0000860FDF7FBFA0748006840F040400549DF
:102BF0000860FDF7E3FA002010BD000020ED00E0C2
:102C00009C00002034EF00E010B500BF502080F39E
:102C10001188BFF34F8FBFF36F8F00BF00F076FABC
:102C200018B14FF080500449086000BF002080F3C5
:102C3000118800BF10BD000004ED00E02DE9F8434D
:102C400007460D4690460DB9002601E007FB05F644
:102C500006F15400FFF7C2F9044644B104F15409E7
:102C600043464A46294638460094FEF7E1FE204690
:102C7000BDE8F8832DE9FF4782B0054689461E4628
:102C80004FF0000A2C4600BFFFF796FBD4F83880BF
:102C9000B8F1000F3BD0E76849462046FEF716FE24
:102CA000DEB9A8F10100A063206810B9FFF704FAAB
:102CB0006060206908B9012000E0002008BB04F131
:102CC000100000F0F3FAE0B14FF080503F49086087
:102CD000BFF34F8FBFF36F8F13E0E760606A08B9EF
:102CE000012000E0002060B904F1240000F0DEFAC9
:102CF00038B14FF0805035490860BFF34F8FBFF3B4
:102D00006F8FFFF76BFB012006B0BDE8F0870498DA
:102D100018B9FFF763FB0020F6E7BAF1000F04D102
:102D20006846FFF711FD4FF0010AFFF757FBFFF769
:102D30004FFDFFF741FB94F94400401C10B90020FF
:102D400084F8440094F94500401C10B9002084F830
:102D50004500FFF743FB04A9684600F063F940BB58
:102D60002046FEF759FFF0B1206830B9FFF724FB89
:102D70006068FFF791FCFFF731FB04F12400049930
:102D8000FFF766FC2046FFF7DFF800F0CFFA0028D7
:102D90007FF47AAF4FF080500C490860BFF34F8F3B
:102DA000BFF36F8F70E72046FFF7CEF800F0BEFA52
:102DB0006AE72046FFF7C8F800F0B8FA2046FEF7A9
:102DC0002BFF0028EED000209EE7000004ED00E07D
:102DD00070B505460E462C46FFF7EEFAD4E90F1201
:102DE000206801FB020060600020A0632068A060F2
:102DF000E06B401E226C216800FB0210E060FF20A7
:102E000084F8440084F845009EB9206908B901207F
:102E100000E00020A8B904F1100000F047FA80B1EA
:102E20004FF0805009490860BFF34F8FBFF36F8F99
:102E300007E004F11000FFF788FA04F12400FFF71F
:102E400084FAFFF7CBFA012070BD000004ED00E02A
:102E50002DE9FF4383B0074688461D464FF0000921
:102E60003C4600BFFFF7A8FAA06BE16B884201D394
:102E7000022D38D12A4641462046FEF73CFD064643
:102E8000A06C68B129462046FEF7E2FE28B34FF059
:102E900080503C490860BFF34F8FBFF36F8F1CE039
:102EA000606A08B9012000E0002068B904F124003C
:102EB00000F0FCF988B14FF0805032490860BFF350
:102EC0004F8FBFF36F8F08E03EB14FF080502D4918
:102ED0000860BFF34F8FBFF36F8FFFF77FFA0120BA
:102EE00007B0BDE8F083059818B9FFF777FA00201E
:102EF000F6E7B9F1000F04D101A8FFF725FC4FF068
:102F00000109FFF76BFAFFF763FCFFF755FA94F935
:102F10004400401C10B9002084F8440094F9450096
:102F2000401C10B9002084F84500FFF757FA05A9A6
:102F300001A800F077F8F0B92046FEF77AFEA0B1BC
:102F400004F110000599FFF783FB2046FEF7FCFF14
:102F500000F0ECF9002885D14FF080500949086055
:102F6000BFF34F8FBFF36F8F7CE72046FEF7ECFF78
:102F700000F0DCF976E72046FEF7E6FF00F0D6F930
:102F80000020ADE704ED00E02DE9F05F06468A463B
:102F900015461F46344600BF5021EFF3118081F3E0
:102FA0001188BFF34F8FBFF36F8F00BF8146A06BB7
:102FB000E16B884201D3022F2BD194F945B03A46F8
:102FC00051462046FEF797FC0BF10100C8B9A06CF2
:102FD00040B139462046FEF73BFEB8B1B5B10120FD
:102FE000286013E0606A08B9012000E0002068B999
:102FF00004F1240000F05AF940B13DB101202860ED
:1030000004E00BF1010040B284F845004FF00108E4
:1030100001E04FF0000800BF89F3118800BF40466F
:10302000BDE8F09F70B504460D46FFF7C5F912489C
:1030300002682868401C08B9002619E00F4920687A
:103040000968884204D06068904201D801260FE0E8
:103050006068101A2968884209D228686168511A84
:10306000401A28602046FFF76FFB002600E001268B
:10307000FFF7B4F9304670BD480000205C00002026
:103080002DE9FF4F85B0804689461746DDE912AB32
:10309000B800FEF7A3FF064656B16020FEF79EFF7C
:1030A00004460CB1266304E03046FFF7A7F900E0C0
:1030B00000247CB10020CDE900ABCDE902403A46C6
:1030C00049464046089BFEF7CAFC2046FEF73EFBF9
:1030D000012501E04FF0FF35284609B0BDE8F08F2B
:1030E0000549096809B9012005E00449096809B9D9
:1030F000022000E000207047500000206C000020FB
:103100000149086870470000480000202DE9F0419F
:1031100000273A480068002863D139480068451CF8
:10312000374805608DB93748D0F8008036480068C8
:10313000344908603448C0F8008034480068401CB6
:1031400032490860FEF776FE00BF314800688542CC
:103150003BD300BF2B480068006808B9012000E09D
:10316000002020B14FF0FF30294908602CE02548AD
:103170000068C068C4686668B54202D22448066028
:1031800022E0201DFFF7C2F8A06A18B104F1180070
:10319000FFF7BCF894F82C10012088401D490968FD
:1031A00008431C490860E16A01EB81011A4A02EBFD
:1031B0008100211DFFF7F3F81849E06A0968C96A20
:1031C0008842C7D30127C5E700BF14480068C06A1A
:1031D00000EB8000104951F82000012800D9012798
:1031E00004E00F480068401C0D4908600D48006865
:1031F00000B101273846BDE8F08100006C000020D6
:1032000048000020380000203C0000205C00002026
:10321000640000204C000020E04A00203400002020
:10322000540000205800002070B505462C460026AA
:10323000ADB3206D401E2065E16CE06A88422ED05F
:10324000206D60BB201DFFF761F878B9E06A00EBE4
:103250008000144951F8200040B994F82C10012046
:1032600088401149096881430F480160E06CE062C1
:10327000E06AC0F12000A06194F82C100120884081
:1032800009490968084308490860E16A01EB8101BE
:10329000044A02EB8100211DFFF781F80126304628
:1032A00070BD0000E04A00204C00002070B50646CA
:1032B000F068C46804F11800FFF728F815480068A2
:1032C000A8B9201DFFF722F894F82C10012088409F
:1032D00011490968084310490860E16A01EB81015E
:1032E0000E4A02EB8100211DFFF759F804E004F1BA
:1032F00018010B48FFF753F80A49E06A0968C96AE0
:10330000884204D9012501200749086000E0002512
:10331000284670BD6C0000204C000020E04A0020D0
:10332000884D0020340000205800002070B5002493
:103330000026FFF741F82E480068401E2C4908601F
:103340000846006800284FD12A48006800284BD062
:1033500024E02948C068C46804F11800FEF7D6FFCD
:10336000201DFEF7D3FF94F82C100120884023493C
:103370000968084321490860E16A01EB8101204A9C
:1033800002EB8100211DFFF70AF81E49E06A096877
:10339000C96A884202D301201B49086016480068A8
:1033A00008B9012000E000200028D2D00CB1FEF7BF
:1033B00041FD1648056865B100BFFFF7A7FE10B1D3
:1033C0000120114908606D1E002DF6D100200F4923
:1033D00008600D48006838B1012630070C490860C4
:1033E000BFF34F8FBFF36F8FFEF7F8FF304670BD0E
:1033F0006C00002044000020884D00204C0000207C
:10340000E04A002034000020580000205400002032
:1034100004ED00E01CB50024FEF7F4F9074800684D
:1034200050B10748012100239622CDE9001005A1E3
:103430000648FFF725FE044620461CBD7800002004
:103440007C000020546D7220537663002F1F00080B
:103450002DE9FF4705460C4616461F46DDF830802D
:103460004FF000091448006810B3009401960295CB
:10347000062C15DAFFF734FE022808D10023424655
:1034800069460D480068FFF7E3FC814610E0002321
:103490001A46694608480068FFF7DAFC814607E0EB
:1034A00000233A46694604480068FFF76DFD8146EF
:1034B000484604B0BDE8F087780000200002000014
:1034C000200000000040000000000000000000009C
:1034D00060FA600000E0C000E0C000247E247E248A
:1034E0000024D456480000C6C81026C6006C926A54
:1034F000040A0000E0C0000000007C820000000020
:10350000827C000000107C387C100010107C1010B1
:103510000000070600000010101010100000060642
:103520000000000408102040007C8A92A27C000069
:1035300042FE020000468A92926200449292926C8D
:1035400000182848FE0800F49292928C003C529297
:10355000920C00808E90A0C0006C9292926C0060E1
:103560009292947800003636000000003736000052
:1035700000102844820000242424242400008244D3
:1035800028100040809A9060007C82BAAA78007E61
:103590008888887E00FE9292926C007C82828244AF
:1035A00000FE8282827C00FE9292928200FE9090C7
:1035B0009080007C8292925E00FE101010FE00004F
:1035C00082FE8200000C020202FC00FE10284482EF
:1035D00000FE0202020200FE402040FE00FE4020EB
:1035E00010FE007C8282827C00FE90909060007CC5
:1035F000828A847A00FE9090986600649292924C3F
:10360000008080FE808000FC020202FC00F80402C0
:1036100004F800FC023C02FC00C6281028C600E0AA
:10362000100E10E0008E92A2C2000000FE82820006
:1036300000402010080400008282FE00002040802C
:1036400040200101010101010000C0E00000000470
:103650002A2A2A1E00FE2222221C001C22222214B8
:10366000001C222222FE001C2A2A2A1000107E9012
:10367000900000182525253E00FE20201E00000099
:1036800000BE020000020121BE0000FE081422005C
:10369000000000FE0200003E2018201E003E2020F8
:1036A0001E00001C2222221C003F2222221C001C81
:1036B0002222223F00221E22201000102A2A2A0441
:1036C00000207C222400003C02043E00003804025A
:1036D0000438003C060C063C003608083600003969
:1036E00005063C0000262A2A320000107C82820057
:1036F000000000EE0000000082827C10004080404C
:103700008000000000000000000000000000000039
:1037100000003F40000000000000000030004000BA
:1037200030004000000009000BC03D000BC03D0010
:10373000090018C024407FE02240318000001800BA
:1037400024C01B000D803240018003801C402740B4
:103750001C800740004010006000000000000000D6
:1037600000000000000000001F80204040200000FA
:10377000402020401F8000000000090006001F803C
:10378000060009000000040004003F80040004005B
:1037900000000010006000000000000000000400B5
:1037A00004000400040004000000000000400000C9
:1037B000000000000000002001C0060038004000AA
:1037C00000001F802040204020401F80000000009B
:1037D00010403FC000400000000018C021402240BF
:1037E00024401840000010802040244024401B80CA
:1037F000000002000D0011003FC0014000003C80AD
:10380000244024402440238000001F802440244082
:103810003440038000003000200027C03800200022
:1038200000001B802440244024401B8000001C001A
:1038300022C0224022401F800000000000000840FB
:103840000000000000000000000004600000000014
:103850000000000004000A00110020804040090020
:103860000900090009000900000000004040208014
:1038700011000A0004001800200023402400180052
:1038800000001F802040274029401F4000000040CA
:1038900007C039000F0001C0004020403FC0244055
:1038A00024401B8000001F802040204020403080AA
:1038B000000020403FC0204020401F8000002040EA
:1038C0003FC024402E4030C0000020403FC0244074
:1038D0002E00300000000F00108020402240338076
:1038E000020020403FC0040004003FC020402040B0
:1038F00020403FC0204020400000006020202020C9
:103900003FC02000200020403FC024400B0030C0BA
:10391000204020403FC020400040004000C03FC049
:103920003C0003C03C003FC0000020403FC00C40B2
:1039300023003FC020001F802040204020401F80E7
:10394000000020403FC024402400180000001F80D9
:103950002140214020E01FA0000020403FC0244023
:10396000260019C0004018C0244024402240318065
:103970000000300020403FC0204030000000200008
:103980003F80004000403F80200020003E0001C0FA
:10399000070038002000380007C03C0007C038008E
:1039A0000000204039C0060039C02040000020003F
:1039B000384007C0384020000000304021C0264079
:1039C000384020C00000000000007FE04020402080
:1039D0000000000070000C000380004000000000A8
:1039E000402040207FE00000000000002000400058
:1039F0002000000000000010001000100010001057
:103A00000010000000004000000000000000000066
:103A100002800540054003C0004020003FC0044034
:103A2000044003800000000003800440044006407E
:103A3000000000000380044024403FC0004000001C
:103A400003800540054003400000000004401FC003
:103A5000244024402000000002E00550055006509C
:103A6000042020403FC00440040003C00040000088
:103A7000044027C0004000000000001000100410A7
:103A800027E00000000020403FC00140070004C0C4
:103A90000440204020403FC000400040000007C0DC
:103AA000040007C0040003C00000044007C0044035
:103AB000040003C000400000038004400440038071
:103AC0000000041007F004500440038000000000D0
:103AD00003800440045007F00010044007C0024077
:103AE000040004000000000006400540054004C03A
:103AF0000000000004001F8004400040000004009B
:103B000007800040044007C000400400070004C0D4
:103B1000018006000400060001C0070001C0060085
:103B20000000044006C0010006C00440000004106C
:103B3000071004E00180060004000000044005C0F6
:103B40000640044000000000000004007BE040202C
:103B50000000000000000000FFF000000000000076
:103B600040207BE004000000000040008000400096
:103B700020002000400000000000000000000000C5
:103B80000000000000000000000000000000000035
:103B90000000000000000000000000000000000025
:103BA0000000000000000000000F80380FFE380FFA
:103BB000803800000000000000000000000000004D
:103BC000000000000100000600000C0000380000AA
:103BD0003100000600000C0000380000300000003A
:103BE00000000000000061800067F807F9800061B4
:103BF000800061800061800061800067F807F980C3
:103C000000618000000000000000000001C0E0032F
:103C1000E0F00630080418081FFFFE040E080787AE
:103C2000F00381E000000000000001F000060C003D
:103C3000040408060C7001F9C0000E00003BE0000F
:103C4000EC18070808040C180003E000000000014D
:103C5000E00007F003F818041C0804170807E1D077
:103C600003C0E00023B0003C080020080000100062
:103C700000000000000100003100003200001C00C4
:103C80000000000000000000000000000000000034
:103C90000000000000000000000000000000000024
:103CA0000000000000007F0001FFC00780F00C0052
:103CB0001810000420000200000000000020000294
:103CC0001000040C00180780F001FFC0007F000006
:103CD00000000000000000000000000000000000E4
:103CE00000004200006600006600003C0000180072
:103CF00003FFC0001800003C0000660000660000E2
:103D00004200000000000800000800000800000851
:103D10000000080001FFC0000800000800000800C3
:103D20000008000008000000000000010000310051
:103D3000003200001C000000000000000000000035
:103D4000000000000000000000000000000008006B
:103D5000000800000800000800000800000800003B
:103D60000800000800000800000800000000000033
:103D7000000000000000380000380000380000009B
:103D80000000000000000000000000000000000033
:103D9000000000000000000600001C000070000190
:103DA00080000E0000380000C0000700001C00006A
:103DB000300000000000000000007F8001FFE003F1
:103DC000807006001804000804000806001803802C
:103DD0007001FFE0007F8000000000000000000094
:103DE00001000801000801000803FFF807FFF800C0
:103DF00000080000080000080000000000000000AB
:103E00000001C03802C058040098040118040218C8
:103E1000040418061C1803F81801E0F8000000005C
:103E2000000000000001C0E003C0F0040008040826
:103E30000804080806180803F41801E7F00001E078
:103E4000000000000000000000000300000D000062
:103E5000110000610000810803010807FFF80FFF4F
:103E6000F80001080001080000000000000000E068
:103E700007FCD006080806100806100806100806F9
:103E80001838060FF00607C0000000000000000010
:103E900000003F8001FFE00384300208180410088E
:103EA000041008041008071810030FF00007C000E2
:103EB000000000000000000003C000070000060032
:103EC000000600F80607F806180006E000070000E4
:103ED00006000000000000000001E1E003F7F0062A
:103EE0003410041808041808040C08040C080616FA
:103EF0001803F3F001C1E000000000000000F8002A
:103F000003FC300306380402080402080402080413
:103F100004100308F001FFC0007F00000000000053
:103F200000000000000000000000000000007038E9
:103F30000070380070380000000000000000000031
:103F40000000000000000000000000000000000071
:103F50000000301A00301C000000000000000000CB
:103F60000000000000000000000000000008000049
:103F70001400002200004100008080010040020087
:103F800020040010080008000000000000002100CC
:103F9000002100002100002100002100002100007C
:103FA000210000210000210000210000000000008D
:103FB000000000000800080400100200200100407A
:103FC0000080800041000022000014000008000072
:103FD000000000000003C00004C00004000008004E
:103FE00038080F380808380810000C300007E000C7
:103FF00003C000000000000000003F8000FFE0035D
:104000008070020F1006708804C088048308047F43
:104010008802C09003012000FE4000000800001844
:104020000001F8003E0801C20007020007E200009C
:10403000FE00001FC80001F800003800000804005E
:104040000807FFF807FFF804080804080804080830
:1040500004080806180803F41801E7F00001E0005E
:104060000000000000003F8001FFE00380700200BC
:1040700018040008040008040008040010060020CA
:104080000780C000000004000807FFF807FFF804DD
:10409000000804000804000804001802001003804F
:1040A0007001FFE0007F8000000004000807FFF8B7
:1040B00007FFF804080804080804080804080804AE
:1040C0003E0804000806001801006000000004001B
:1040D0000807FFF807FFF8040808040800040800B0
:1040E000040800043E0006000006000001800000F5
:1040F0000000000000003F8001FFE0038070060028
:10410000180400080402080402080203F00783F000
:1041100000020000020004000807FFF807FFF8048F
:104120000808000800000800000800000800040853
:104130000807FFF807FFF80400080000000000006F
:1041400004000804000804000807FFF807FFF8044B
:10415000000804000804000800000000000000003F
:104160000000000600000700000104000104000137
:1041700004000307FFFE07FFFC0400000400000426
:10418000000004000807FFF807FFF8040C080018F7
:1041900000003E0004C7800503C80600F80400388C
:1041A00004001800000804000807FFF807FFF804DF
:1041B00000080000080000080000080000080000D7
:1041C0000800001800006000000004000807FFF865
:1041D00007800807FC00007FC00003F80007C0004C
:1041E000780007800807FFF807FFF80400080400BC
:1041F0000807FFF807000803C00000E000003800CF
:10420000001E000007000001C00400F007FFF804D2
:104210000000000000007F8001FFE00380700600C6
:104220001804000804000806001803003001FFE02D
:10423000007F8000000004000807FFF807FFF80473
:104240000408040400040400040400040400060C30
:104250000003F80001F000000000000000007F8073
:1042600001FFE00380700600880400880400C8068F
:10427000003C03003E01FFE6007F840000000400D4
:104280000807FFF807FFF8040808040800040C00FA
:10429000040F00040BC00610F003F03801E0080022
:1042A000000800000001E0F803F0300630100418A8
:1042B00008041808040C08040C080206180207F089
:1042C0000781E000000001800006000004000004F7
:1042D000000004000807FFF807FFF80400080400C6
:1042E0000004000006000001800004000007FFE059
:1042F00007FFF00400180000080000080000080094
:10430000000800000804001007FFE004000004009B
:104310000006000007E00007FE00041FE00001F8AF
:104320000000380001E0043E0007C0000600000461
:10433000000004000007E00007FFC0041FF80007AA
:10434000C007F80007FF80043FF80007C004F8002A
:104350000700000400000000000400080600180721
:10436000C07805F1C8003E00001F800463E80780A4
:10437000F806001804000800000004000006000011
:1043800007800007E008047C08001FF80007F80019
:10439000180804E008070000060000040000000000
:1043A000000100080600380400F80403E8040F08C0
:1043B000047C0805F00807C0080700180400600026
:1043C00000000000000000000000000000000000ED
:1043D000003FFFFE20000220000220000220000219
:1043E000200002000000000000000000080000079C
:1043F000000000C0000038000006000001C00000FE
:104400003000000E0000010000000000000000006D
:104410002000022000022000022000022000023FB3
:10442000FFFE00000000000000000000000000008F
:104430000000000000000008000010000030000034
:104440002000003000001000000800000000000004
:104450000000000001000001000001000001000058
:104460000100000100000100000100000100000146
:10447000000001000001000000000000000000201A
:1044800000002000001000001000000000000000EC
:10449000000000000000000000000000000000F02C
:1044A0000019F8001B180022080026080024080044
:1044B0002410003FF8001FF800000800001800005A
:1044C0000004000007FFF80FFFF0001818001008A4
:1044D000002008002008003018001FF0000FC00066
:1044E00000000000000007C0001FF000183000208E
:1044F00008002008002008003C08001C1000006094
:104500000000000000000000000007C0001FF000D5
:10451000381800200800200800200804101007FFA9
:10452000F80FFFF000001000000000000000000085
:104530000007C0001FF000123000221800220800FF
:104540002208003208001E10000E200000000000AB
:104550000000200000200800200801FFF803FFF8F9
:10456000062008042008042008072000030000009B
:10457000000000000000000E000E6E001FF300316E
:10458000B10020B10020B1003191001F13002E1E98
:1045900000200E00300000000004000807FFF80FA4
:1045A000FFF8001008002000002000002008003F55
:1045B000F8001FF8000008000000000000000000E4
:1045C000002008002008002008063FF8063FF800F9
:1045D00000080000080000080000000000000000C3
:1045E0000000000000000300000300200100200183
:1045F000002003063FFE063FFC0000000000000014
:10460000000000000004000807FFF80FFFF8000199
:1046100088000300002FC00038F800203800200870
:104620000000080000000000000000000400080472
:10463000000804000807FFF80FFFF800000800005A
:1046400008000008000000000000002008003FF8FB
:10465000003FF8001008002000003FF8003FF8007D
:104660001008002000003FF8003FF800000800009C
:1046700000002008003FF8003FF80010080010007C
:10468000002000002008003FF8001FF8000008008C
:1046900000000000000007C0000FF00018300030DC
:1046A00008002008002008003008001830000FF033
:1046B0000007C0000000000000002001003FFF00D4
:1046C0003FFF0010110020090020080020080030E2
:1046D00038001FF0000FC00000000000000007C0FD
:1046E000001FF000381800200800200800200900F2
:1046F0001011001FFF003FFF00000100000000201C
:1047000008002008002008003FF8003FF8000808D3
:1047100000100800200800200000300000300000D9
:104720000000000000000000000C78001E1800339C
:10473000080023080021080021880021980030F09B
:104740000038600000000000000020000020000091
:10475000200000FFF003FFF80020080020080020E0
:1047600008000030000000000000000000002000F1
:10477000003FF0007FF8000018000008000008006B
:104780002010003FF8007FF0000010000000000043
:1047900000002000003000003C00003F800023F0BB
:1047A000000078000070002380003C000030000012
:1047B0002000002000003C00003FE00023F8000043
:1047C000E0002700003E00003FE00021F80001E08B
:1047D000003E00002000000000002008002008002B
:1047E0003838003E680027800003C8002CF80038E5
:1047F0003800201800200800000000000000200001
:10480000003003003C01003F830023EC00007000F7
:104810002380003C00002000002000000000000079
:10482000000000000038080020380020F80023E8CD
:10483000002F88003E080038080020180000700093
:104840000000000000000000000000000000000068
:10485000000008000014001FF7FC300006200002D2
:104860000000000000000000000000000000000048
:104870000000000000000000FFFFFF00000000003B
:104880000000000000000000000000000000000028
:104890002000023000061FF7FC0014000008000092
:1048A0000000000000000000000000000000000008
:1048B00000180000600000400000400000200000E0
:1048C0001000000800000400000400000C000010AC
:1048D00000000000000000000000000000000000D8
:1048E00000000000000000000000000000000000C8
:1048F00000000000000000000000000000000000B8
:1049000000000000000000000000000000000000A7
:104910000000000000000000000000000000000097
:104920000000000000000000000000000000000087
:104930000000000000000000000000000000000077
:104940000000000000000000000000000000000067
:104950000000000000000000000000000000000057
:104960000000000000000000000000000000000047
:104970000000000000000000000000000000000037
:104980000000000000000000000000000000000027
:104990000000000000000000000000000000000017
:1049A0000000000000000000000000000000000007
:1049B00000000000000000000000000000000000F7
:1049C00000000000000000000000000000000000E7
:1049D00000000000000000000000000000000000D7
:1049E00000000000000000000000000000000000C7
:1049F00000000000000000000000000000000000B7
:104A000000000000000000000000000000000000A6
:104A1000000000000000000006080600C83400087E
:104A2000060C0C00023700080C182400763B000826
:104A3000504A000800000020AC00000024050008D7
:104A4000FC4A0008AC0000204CC9000034050008F6
:104A50000000000000BD0105000000000000000093
:104A6000010203040607080900000000D90B000832
:104A7000990B0008900600209046002000000000DE
:104A80000000000000000000000000000000000026
:104A90000000000000000000000000000000000016
:104AA0000000000000000000000000000000000006
:104AB00000000000000000000000000000000000F6
:104AC00000000000000000000000000000000000E6
:104AD00000000000000000000000000000000000D6
:104AE000000000000000000000000000AAAAAAAA1E
:0C4AF000000000000000000000000000BA
:040000050800018965
:00000001FF
