:020000040800F2
:1000000058CC002055020008D7040008CF0400088F
:10001000D3040008710300085D0800080000000018
:100020000000000000000000000000009D0100082A
:100030007503000800000000F1010008E507000852
:100040006F0200086F0200086F0200086F020008CC
:100050006F0200086F020008770300086F020008B3
:100060006F0200086F0200086F0200086F020008AC
:100070006F0200086F0200086F0200086F0200089C
:100080006F0200086F0200086F0200086F0200088C
:100090006F0200086F0200086F0200086F0200087C
:1000A0006F0200086F0200086F0200086F0200086C
:1000B0006F0200086F0200086F0200086F0200085C
:1000C0006F0200086F0200086F0200086F0200084C
:1000D0006F0200086F0200086F0200086F0200083C
:1000E0006F0200086F0200086F0200086F0200082C
:1000F0006F0200086F0200086F0200086F0200081C
:100100006F0200086F0200086F0200086F0200080B
:100110006F0200086F0200086F0200086F020008FB
:100120006F0200086F0200086F0200086F020008EB
:100130006F0200086F0200086F0200086F020008DB
:100140006F0200086F0200086F0200086F020008CB
:100150006F0200086F0200086F0200086F020008BB
:100160006F0200086F0200086F0200086F020008AB
:100170006F0200086F0200086F0200086F0200089B
:100180006F0200086F020008DFF80CD000F0DEF804
:10019000004800476921000858CC00202A4B196804
:1001A0000868B0E8F04F80F30988BFF36F8F4FF015
:1001B000000080F3118870470000000006480068C6
:1001C000006880F3088862B661B6BFF34F8FBFF353
:1001D0006F8F00DF00BF00BF08ED00E0DFF80C000C
:1001E000016841F470010160704700BF88ED00E0D4
:1001F000EFF30980BFF36F8F134B1A681EF0100FD7
:1002000008BF20ED108A20E9F04F106008B44FF0CD
:10021000500080F31188BFF34F8FBFF36F8F03F04F
:1002200019FA4FF0000080F3118808BC19680868BB
:10023000B0E8F04F1EF0100F08BFB0EC108A80F34A
:100240000988BFF36F8F704734000020EFF30580FB
:10025000704700000648804706480047FEE7FEE773
:10026000FEE7FEE7FEE7FEE7FEE7FEE7FEE7FEE766
:10027000F50700088901000840EA01039B0703D045
:1002800009E008C9121F08C0042AFAD203E011F8D5
:10029000013B00F8013B521EF9D27047D2B201E097
:1002A00000F8012B491EFBD270470022F6E710B57B
:1002B00013460A4604461946FFF7F0FF204610BDD4
:1002C00070B5C1F30A5201F000450024C1F31301D7
:1002D00040F2FF3341F480119A4201DA002070BDF0
:1002E00040F233439A42A2F2334203DC524200F01E
:1002F0001CF800E090402C43F1D0404270BD30B576
:100300000B46014600202022012409E021FA02F5D3
:100310009D4205D303FA02F5491B04FA02F528446D
:10032000151EA2F10102F1DC30BD202A04DB203AC7
:1003300021FA02F00021704721FA02F3D040C2F105
:10034000200291400843194670470000064C074DB3
:1003500006E0E06840F0010394E807009847103495
:10036000AC42F6D3FFF714FFF0580008105900080C
:1003700000BFFEE7704710B50024012000F002F82E
:1003800010BD00000149086070470000143C0140A6
:10039000002123498279002A3AD00A46126803686C
:1003A0009A430B461A600A1D126803689A430B1D94
:1003B0001A60027911440A6803681A430A60184AED
:1003C0000832126803689A43154B08331A601A1DE5
:1003D000126803689A43124B0C331A604279102A50
:1003E0000ED11A1F126803681A430D4B08331A60A6
:1003F0001A1D126803681A43094B0C331A600DE08A
:100400000749427911440A6803681A430A6005E003
:10041000027911440A6803689A430A607047000031
:10042000003C0140F0B50A4600210023002400BF33
:100430003DE0012505FA01F3156805EA03049C4235
:1004400034D105684F000326BE40B54305601579D9
:100450004E00B5400668354305601579012D02D080
:100460001579022D16D185684F000326BE40B5438D
:10047000856055794E00B54086683543856045688E
:1004800001268E40B5434560456896798E40B6B2E8
:1004900035434560C5684F000326BE40B543C5607F
:1004A000D5794E00B540C6683543C560491C102952
:1004B000BFD3F0BD0246002013690B400BB10120F1
:1004C00000E000207047418370470183704700BF00
:1004D000FEE700BFFEE7704770B5002100230F2242
:1004E000C4781CB3174C246804F4E064C4F5E064D9
:1004F000C4F30721C1F10404E3B20A4144789C40EB
:10050000E1B28478144021430C07210E0E4C05788B
:100510006155047804F01F050124AC4005786D1185
:10052000AD0005F1E025C5F8004109E0047804F0CC
:100530001F050124AC40054D0678761145F826408C
:1005400070BD00000CED00E000E400E080E100E0A0
:1005500002490143024A1160704700000000FA0599
:100560000CED00E0014908627047000000000E42F7
:100570000349096841EA8001014A1160704700009F
:10058000007000400748006840F00200054908601C
:100590000548006840F004000349086000BF00BF40
:1005A00030BF70470070004010ED00E00149086066
:1005B00070470000A0000E4229B1064A12680243AB
:1005C000044B1A6004E0034A12688243014B1A602C
:1005D000704700003038024029B1064A12680243D1
:1005E000044B1A6004E0034A12688243014B1A600C
:1005F000704700001038024029B1064A12680243D1
:10060000044B1A6004E0034A12688243014B1A60EB
:10061000704700004038024029B1064A1268024380
:10062000044B1A6004E0034A12688243014B1A60CB
:100630007047000044380240002101098AB242F0AC
:100640008002044B1B6803F0800363EA0202014B43
:100650001A6070470C280040CA22174B1A605322B8
:100660001A6091B1144A1C3A126820F004031A432C
:10067000114B1C3B1A60104A1C32126800F0040334
:100680001A430D4B1C331A6011E00B4A1C3A1268D6
:1006900020F004039A43084B1C3B1A60064A1C32A4
:1006A000126800F004039A43034B1C331A60FF22C4
:1006B000014B1A60704700002428004030B500222A
:1006C0008B071C0F0F2303FA04F20B4B8C1053F80B
:1006D00024309343084C8D1044F8253023468C1069
:1006E00053F824308C07240F00FA04F42343024CFF
:1006F0008D1044F8253030BD083801400CB500207D
:10070000019000903348006840F48030314908601F
:1007100000BF3048006800F4003000900198401C91
:100720000190009818B90198B0F5A04FF1D129486F
:10073000006800F4003010B10120009001E00020BA
:1007400000900098012844D122484030006840F0D1
:1007500080502049403108601F48006840F4404004
:100760001D4908601B48083000681A4908310860B4
:100770000846006808600846006840F48050086039
:100780001648091F0860081F006840F08070091FA4
:10079000086000BF0F48006800F000700028F9D022
:1007A00040F202700E4908600A480830006820F0E4
:1007B00003000849083108600846006840F002005C
:1007C000086000BF03480830006800F00C000828EB
:1007D000F8D10CBD003802400070004010544107B1
:1007E000003C024010B503F0DBFB012801D003F010
:1007F0006BF910BD10B51548006840F4700013493E
:1008000008601348006840F00100114908600020AA
:100810000F49083108600E4800680E4908400C492D
:1008200008600D48091D0860081F006820F480203A
:10083000091F0860002006490C310860FFF75EFFC1
:100840004FF0006001498039086010BD88ED00E07C
:1008500000380240FFFFF6FE1030002400BFFEE724
:100860000FB4084B10B504A902AA039800F01CF8B5
:10087000044602A9002000F0F3F8204610BC5DF801
:1008800014FB0000610A000802E008C8121F08C13A
:10089000002AFAD170477047002001E001C1121F01
:1008A000002AFBD1704700002DE9FF4F8BB09A461C
:1008B0000F460546002606E025280BD052460D9926
:1008C00090476D1C761C28780028F5D10FB0304673
:1008D000BDE8F08F0024A0460122604900E00443F7
:1008E00015F8013F203B02FA03F00842F7D12878BF
:1008F0002E2817D115F8010F44F004042A280ED031
:100900006FF02F022878A0F1300109290AD808EBEE
:10091000880102EB410100EB01086D1CF2E757F87A
:10092000048B6D1C287869283ED006DC0028CDD0C9
:1009300063280BD0642804D136E0732810D07528C2
:100940004BD052460D999047761C85E017F8040B62
:100950008DF8000000208DF80100E946012003E039
:1009600057F8049B4FF0FF3061074FF0000401D4AB
:100970000AE0641C44450DDA8442FADB19F80410DD
:100980000029F6D106E0641C8442FCDB19F804104F
:100990000029F8D1264404E019F8010B52460D99BC
:1009A0009047641EF8D257E001CF4FF00A0B0028A1
:1009B00002DA40422D2102E0210504D52B218DF8D9
:1009C0002410012103E0E10705D02021F7E70DF114
:1009D000200908910CE00021F9E701CF4FF00A0B44
:1009E000F9E75946FFF78BFC01F1300209F8012DB8
:1009F0000028F6D1ADEB090000F1200B600701D40F
:100A00004FF00108D84502DDA8EB0B0000E0002004
:100A10008046002406E009A85246005D0D999047E3
:100A2000641C761C08988442F5DB04E030205246B2
:100A30000D999047761CB8F10001A8F10108F5DC8A
:100A400005E019F8010B52460D999047761CBBF151
:100A50000001ABF1010BF4DC6D1C34E70928010047
:100A60000A68531C0B601070704710B54FF440704B
:100A7000FFF76EFD00F0D2FD00F0C4FB00F00AFAB3
:100A800000F030F910BD00002DE9F04704460E4695
:100A900000250027A9462348005D18B921491039CF
:100AA000086880471EB94FF0FF30BDE8F0871E4848
:100AB00050F82400B6FBF0F71B4850F82400B6FBB2
:100AC000F0F100FB116000B17F1C184850F82400C1
:100AD000451E22E01348001F50F8240030F815008E
:100AE00010B909F1010901E04FF00009B94513D12E
:100AF0004FF0000809E00B48001F50F8240005EBF8
:100B0000080220F8127008F10108B845F3D306482E
:100B100050F824006843C8E76D1E002DDADA4FF064
:100B2000FF30C2E72C000020804300087C4300080F
:100B30002DE9FC4104460E4617461D46304600F09E
:100B400021FD1DB902208DF8070004E0012D02D11E
:100B500001208DF8070000208DF804008DF80600B4
:100B600003208DF8050001208DF807006946304606
:100B7000FFF758FC154800EB04100660134800EB23
:100B800004108780114800EB041085714FF4FA704F
:100B90000E4901EB0411488102200C4901EB0411BC
:100BA000C8710020094901EB04110873074901EBE2
:100BB000041188730A20054901EB041148730448A5
:100BC0000078401C02490870BDE8FC81A8020020A2
:100BD0001A00002070B50546304800EB0514284681
:100BE00000F0AEF800283ED0E079052802DA0520B2
:100BF000E07152E0E0790A2803DAE079401CE07104
:100C00004BE0207B38B901202073012101EB052145
:100C100088B200F0B9F8608900283EDD208961893A
:100C200088420DDA2089401C80B220816189884287
:100C300033D1032101EB052188B200F0A5F82CE0A7
:100C4000607B002829DDA07B401CC0B2A073617BC3
:100C5000884222DB0020A073012101EB052188B22C
:100C600000F092F819E0E079052802DD0520E07136
:100C700010E0E07918B1E079401EE0710AE0207BD5
:100C8000012807D100202073022101EB052188B241
:100C900000F07AF80020A073208170BDA802002027
:100CA0000E48007808B9002070470D48007D0C4AB6
:100CB000527D904201D10020F6E70948007D084AA4
:100CC00032F810101046007D401CC0B210750A2882
:100CD00001DB002010750846E6E70000190000203F
:100CE0009002002010B51348007800B110BD012318
:100CF000402211490020FFF71BFF012308220E4963
:100D00001846FFF715FF0123DA030C490220FFF70D
:100D10000FFF01239A0309490320FFF709FF01236D
:100D20001A4605490420FFF703FF01200149087016
:100D300000BFDBE719000020000002400004024071
:100D400001460F480078814201DD002070470D48C0
:100D500000EB0110006800690A4A02EB0112928858
:100D6000104008B1012000E00020064A02EB011209
:100D70009279904201D00120E8E70020E6E70000E8
:100D80001A000020A80200200749497D064A22F8DF
:100D900011001146497D491CC9B251750A2901DB70
:100DA00000215175704700009002002010B500240A
:100DB00000BF04E02046FFF70DFF601CC4B20248EC
:100DC00000788442F6DB10BD1A0000202DE9FC41BA
:100DD00004460D4616461F46284600F0D3FB012068
:100DE0008DF8040000208DF8060003208DF8050022
:100DF00001208DF80700009669462846FFF712FB90
:100E000004EB8400214941F8205004EB840001EBFD
:100E100080008680012004EB84011C4A02EB8101E2
:100E20004872002004EB840102EB8101088204EB8C
:100E3000840102EB8101C88104EB840102EB810192
:100E4000488204EB840102EB8101488104EB8401B8
:100E500002EB8101888104EB8400114601EB8000E4
:100E60008771012004EB840102EB8101C87104EB5E
:100E7000840102EB81010872204600F01DF804484D
:100E80000078401C02490870BDE8FC815001002038
:100E90001800002010B500234FF4007205491846D1
:100EA000FFF794FF00234FF4806202490120FFF70F
:100EB0008DFF10BD0000024010B52B490978884213
:100EC00006DC00EB8001294A02EB8101097A01B9B5
:100ED00010BD032827D1002120E001EB8102234B24
:100EE00003EB820292795AB901EB810203EB820291
:100EF000928801EB81031D4C54F823305A830BE098
:100F000001EB8102194B03EB8202928801EB810312
:100F1000164C54F823301A834A1CD1B2124A127864
:100F20009142DADD1EE000EB8001104A02EB810104
:100F3000897959B900EB800102EB8101898800EBC6
:100F400080020A4B53F8222051830BE000EB800112
:100F5000064A02EB8101898800EB8002034B53F8BB
:100F60002220118300BFB3E71800002050010020A9
:100F700010B52B490978884206DC00EB8001294A2C
:100F800002EB8101097A01B910BD032827D10021A4
:100F900020E001EB8102234B03EB820292795AB9E4
:100FA00001EB810203EB8202928801EB81031D4C6D
:100FB00054F823301A830BE001EB8102194B03EB49
:100FC0008202928801EB8103164C54F823305A8335
:100FD0004A1CD1B2124A12789142DADD1EE000EBCF
:100FE0008001104A02EB8101897959B900EB800137
:100FF00002EB8101898800EB80020A4B53F8222022
:1010000011830BE000EB8001064A02EB8101898825
:1010100000EB8002034B53F82220518300BFB3E75B
:10102000180000205001002010B5002400BFA8E0E7
:1010300004EB8400564901EB8000C07928B104EB31
:10104000840001EB8000808900B998E004EB840003
:101050004F4901EB8000407A58BB04EB840001EB60
:1010600080008089002823DD04EB840001EB8000F0
:10107000008A401C80B204EB8401454A02EB8101E6
:10108000088204EB840102EB81014989884275DB07
:101090002046FFF711FF002004EB84013C4A02EBDD
:1010A00081010882012004EB840102EB8101487276
:1010B00064E004EB8400364901EB8000407A0128AB
:1010C0005CD104EB840001EB8000008A401C80B2FC
:1010D00004EB84012E4A02EB8101088204EB8401B7
:1010E00002EB81018989884248DB04EB84001146C8
:1010F00001EB8000C089002831DD04EB840001EBA6
:101100008000C0894FF6FF71884228D004EB84002C
:10111000114601EB8000408A401C80B204EB840140
:1011200002EB8101488204EB840102EB8101C98951
:10113000884205DB002004EB840102EB8101C871C9
:1011400004EB8400124901EB8000C07938B900201B
:1011500004EB84010E4A02EB810188810FE000203C
:1011600004EB84010A4A02EB8101088204EB84014A
:1011700002EB810148722046FFF7FAFE00BF601CB7
:10118000C4B20448007884427FF752AF10BD00001B
:10119000500100201800002070B504460E460025BE
:1011A00031462046FFF770FC05466FF070408542DF
:1011B00001D1002070BD024850F824002844F9E70E
:1011C0002400002010B501460023002200BF07E0E4
:1011D0000A4850F8210030F8120000B15B1C521C84
:1011E000074850F821009042F2D864205843044C3C
:1011F00054F82140B0FBF4F0C0B210BD280000202C
:101200007C43000800B5094909684A000849C868D4
:10121000002100F011F807490A6805498868002193
:1012200000F00AF801200249087400BD7C43000860
:101230001C0000208443000830B5034601E003F899
:10124000011B141EA2F10102F9D130BD70B50024BA
:101250000CE0002506E00020074901EBC501085518
:10126000681CC5B2802DF6DB601CC4B2082CF0DB14
:1012700000F014F970BD0000A8030020F0B514467A
:1012800000267F2801DC3F2900DDF0BD0B46CF178B
:1012900001EB5777FF10C7F10707FAB2CF1701EB41
:1012A0005777FF10A1EBC707FDB2C5F10707012370
:1012B000BB40DEB24CB10A4B03EBC0039B5C334333
:1012C000074F07EBC007BB5408E0054B03EBC00317
:1012D0009B5CB343024F07EBC007BB5400BFD4E78E
:1012E000A80300202DE9F04706460F469046994690
:1012F000DDF820A034460CE03D4606E05246294683
:101300002046FFF7BBFF681CC5B24D45F6DD601CEB
:10131000C4B24445F0DDBDE8F08700001CB51A48B2
:1013200000F030F9184800F02DF9184800F02AF9BB
:10133000154800F027F901208DF8040000208DF8F1
:10134000060001208DF8070003208DF805004FF4FA
:101350008050009069460C48FFF764F84FF4005045
:10136000009069460848FFF75DF84FF480600090F0
:1013700069460548FFF756F8802000906946034803
:10138000FFF750F81CBD00000004024000000240BE
:1013900010B5FFF7C3FF4FF480613F48FFF795F8A2
:1013A000642001F0CFFF4FF480613B48FFF78BF8DA
:1013B000642001F0C7FF4FF480613748FFF785F8DC
:1013C0000021AE2000F0A8F80021D52000F0A4F8FC
:1013D0000021502000F0A0F80021A82000F09CF887
:1013E00000213F2000F098F80021D32000F094F86D
:1013F0000021084600F090F80021402000F08CF811
:1014000000218D2000F088F80021142000F084F8DD
:101410000021202000F080F80021084600F07CF830
:101420000021A02000F078F80021CF2000F074F80F
:101430000021DA2000F070F80021122000F06CF892
:101440000021812000F068F80021EF2000F064F80E
:101450000021D92000F060F80021F12000F05CF8B4
:101460000021DB2000F058F80021302000F054F873
:101470000021A42000F050F80021A62000F04CF834
:101480000021AF2000F048F8FFF7E0FE00210846F9
:1014900000F02AF810BD00000004024070B50024DE
:1014A0001CE004F1B001C8B2002100F035F80021C1
:1014B000084600F031F80021102000F02DF800253A
:1014C00008E0084901EBC501085D402100F024F85F
:1014D000681CC5B2802DF4DB601CC4B2082CE0DBB4
:1014E00070BD0000A803002070B504460D4605F14C
:1014F000B001C8B2002100F00FF8102141EA141029
:10150000002100F009F804F00F0141F00100002172
:1015100000F002F870BD000070B504460E4626B11A
:1015200080211648FEF7D1FF03E080211348FEF723
:10153000CAFF00251BE04FF400511148FEF7C3FF1E
:1015400004F0800028B14FF480510D48FEF7BDFF34
:1015500004E04FF480510A48FEF7B5FF4FF4005104
:101560000748FEF7B2FF6006040E681CC5B2082DDE
:10157000E1DB80210148FEF7A8FF70BD00000240BA
:101580000004024070B50446204600F005F8054608
:101590000121FFF711F870BD01460020164A914263
:1015A00001D1012026E0154A914201D1022021E01B
:1015B000134A914201D104201CE0124A914201D108
:1015C000082017E0104A914201D1102012E00F4A82
:1015D000914201D120200DE00D4A914201D180209D
:1015E00008E00C4A914201D1881503E00A4A914271
:1015F00000D140207047000000000240000402407B
:1016000000080240000C024000100240001402409A
:10161000001C0240002002400018024010B50020CB
:1016200000BF1BE0002200EB8003194C04EB830396
:101630005A6000EB800304EB83039A6000EB8003A5
:1016400004EB83035A7000EB800304F8232000EBC3
:10165000800304EB83031A61421CD0B20828E1DB4B
:101660000C4A12680C4BB2FBF3F14FF47A725143FF
:101670004FF0E022126942F002024FF0E0231A61BB
:101680001A465161126942F002021A6110BD00004F
:10169000B00000200400002040420F002DE9F84374
:1016A0000446002500262146694800F027FD002059
:1016B00000906788B4F806C06744BBB22788B4F8C6
:1016C00004C06744BAB26188208800F07BFC607D6A
:1016D00000F0010030B3607D00F0080010B101257A
:1016E000012677E0607D00F0100060B101255849C7
:1016F0000A39087A00F01CF9E1880F1A07EBD77055
:10170000401006B266E0607D00F02000002861D045
:1017100001254F490A39087A00F00AF9E188081AC8
:1017200006B257E0607D00F00400C8B3607D00F0B1
:10173000080060B1207D00F0E3F80746A06800F0E3
:101740007FFCA18807FB101005B2012642E0607DF6
:1017500000F01000B0B1207D00F0D2F80746A0687C
:1017600000F06EFCA18807FB101005B238490A3959
:10177000087A00F0DDF8E1880F1A07EBD770401007
:1017800006B227E0607D00F0200018B30125304943
:101790000A39087A00F0CCF8E188081A06B219E094
:1017A000FFE7207D00F0ACF88046A06800F048FC20
:1017B000A18808FB101707EBD770401005B2244929
:1017C0000A39087A00F0B4F8E1880F1A07EBD770ED
:1017D000401006B2207BE0B1012000906788B4F889
:1017E00006C06744BBB22788B4F804C06744BAB2E5
:1017F0006188208800F028FA6288324491B22288F9
:101800002A4490B200F026FC0121A06800F030F9D3
:101810001BE0012000906788B4F806C06744BBB2A3
:101820002788B4F804C06744BAB26188208800F001
:10183000C9FB6288324491B222882A4490B200F0F7
:1018400009FC0021A06800F013F9BDE8F88300004E
:101850000EC7002010B5044601229FED0D0B1C2180
:101860000F2000F037F9012305221C210F2000F082
:101870002CFA01229FED060B30210F2000F02AF9EF
:101880000123052230210F2000F01FFA10BD0000B7
:101890000000000000002040014621B1012905D0D0
:1018A000022909D105E0054880787047044880780E
:1018B000FBE704488078F8E700BFF6E7D85800084F
:1018C000E0580008E8580008024622B1012A06D074
:1018D000022A0CD107E007484068405C7047064880
:1018E0004068405CFAE705484068405CF6E700BFA6
:1018F000F4E70000D8580008E0580008E85800084D
:10190000014621B1012905D0022909D105E0054888
:101910000078704704480078FBE704480078F8E74F
:1019200000BFF6E7D8580008E0580008E85800085B
:10193000014621B1012905D0022909D105E0054858
:101940004078704704484078FBE704484078F8E75F
:1019500000BFF6E7D8580008E0580008E85800082B
:1019600010B500F01CF80020074908728880C88074
:101970000880488048810021034881817F21C181FE
:101980003F21018210BD000004C7002010B5FFF701
:1019900085FD10BD10B5002000F048FB10BD10B54E
:1019A000FFF7F6FCFFF752FC10BD00002DE9FE4FDB
:1019B00007460C460020029080468146824600255C
:1019C00083460026019000902849087AFFF7B0FF6F
:1019D00002902649087AFFF75FFF8046234890F877
:1019E00004A0807983460546A7F1200000FB08F09B
:1019F00080B2009000BF35E0009A324491B21B4A99
:101A0000107AFFF761FF81460020019025E009F080
:101A1000800028B122462946504600F0ADF808E083
:101A20000CB9012000E0002002462946504600F093
:101A3000A3F84FEA49604FEA1069681CC5B2A5EBEC
:101A40000B010298814205D15D460AF1010000F0C8
:101A5000FF0A05E00198401C019001980828D6D3A0
:101A600000BF761C4645C7D3BDE8FE8F04C70020E3
:101A70002DE9F04104460E46002500271449087A56
:101A8000FFF73EFF05461249087AFFF751FF074668
:101A900018E00F48808828447F280CDA14F8010BDE
:101AA0003146FFF783FF0A4AD18892882A4490B2D0
:101AB00000F0D0FA06E00648C088384481B2002021
:101AC00000F0C8FA20780028E3D1BDE8F0810000DA
:101AD00004C700202DE9F0472DED028B82B081462E
:101AE0008A46B0EE408AF0EE608A17460024002550
:101AF00051EC180BFEF7E4FB1FFA80F80026454670
:101B0000C8F1010006B216E02B462246514648466F
:101B1000009700F057F8002E04DA6000C01C304433
:101B200006B206E0601B4000401D304406B2681E4D
:101B300085B2601C84B2AC42E6DD02B0BDEC028B23
:101B4000BDE8F0872DE9F04104460E4615461F46D4
:101B50004FF00008AC4203DD05F0FF08254644467F
:101B600000BFF1B2E0B23A4600F006F8601C84B261
:101B7000A542F6DABDE8F08170B504460D4616467A
:101B80000F484189C0890844A04200DA70BD0C4862
:101B90004089A04200DDF9E709488189008A0844AC
:101BA000A84200DAF2E706488089A84200DDEDE7A6
:101BB000324629462046FFF761FB00BFE6E70000FA
:101BC00004C700202DE9F04104460D4616461F4685
:101BD000DDF81880EA19D1B2A219D0B24246FFF757
:101BE000CBFFAA19D1B2E219D0B24246FFF7C4FF27
:101BF000AA1BD1B2E219D0B24246FFF7BDFFEA1BE1
:101C0000D1B2A219D0B24246FFF7B6FFEA1BD1B259
:101C1000A21BD0B24246FFF7AFFFAA1BD1B2E21B14
:101C2000D0B24246FFF7A8FFAA19D1B2E21BD0B248
:101C30004246FFF7A1FFEA19D1B2A21BD0B2424639
:101C4000FFF79AFFBDE8F0812DE9F04106460F4607
:101C500015461C46DDF8188043462A46394630466C
:101C6000FFF770FF43462A4621463046FFF76AFFDA
:101C7000434622463946304600F008F8434622469D
:101C80003946284600F002F8BDE8F0812DE9F04120
:101C900006460C4615461F464FF00008AC4202DDD2
:101CA000A8462546444600BFE1B2F0B23A46FFF7E7
:101CB00063FF601C84B2A542F6DABDE8F08110B57E
:101CC00000F0F8F900F0DEFA10BD2DE9FF4F91B0F9
:101CD0000446174617B915B0BDE8F08FA246109418
:101CE000129800EB070BCDF83CB0DDF83CB0BBF12F
:101CF000400F06DA0F9AD1B2109AD0B2149AFFF7B9
:101D00003BFF0C940E941298C01B0B900D900D98F5
:101D1000002806DB0D9AD1B20E9AD0B2149AFFF7C2
:101D20002BFFE01907900A901298069009900A98E4
:101D3000802808DA099AD1B20A9EF0B2149AFFF705
:101D40001BFF0A9E00E08026129DE01B0490049871
:101D5000002801DA00200490B2B2A9B2049B98B224
:101D6000149BFFF7EFFEA4EB0708C14612980590FD
:101D70000890B8F1000F06DB089AD1B208F0FF0016
:101D8000149AFFF7F9FE012F00D1A4E77800C0F103
:101D9000030001900020039002970CE101980028B5
:101DA00006DA03988000801D0199084401901FE025
:101DB000DDE90210401A80000A30019908440190C0
:101DC0000298401E02900F98401E0F90ABF1010B3D
:101DD0000D98401C0D900B98401C0B900A98401ECB
:101DE0000A9008F101080798401E079009F10109BF
:101DF0000398401C03901098401C1090AAF1010A0F
:101E00000E98401C0E900C98401E0C900998401C97
:101E100009900898401C08900698401E0690059866
:101E2000401E05901098802809DC0F98002806DBDA
:101E30000F9AD1B2109AD0B2149AFFF79DFEBAF160
:101E4000000F09DBBBF1000F06DB0BF0FF010AF00E
:101E5000FF00149AFFF790FEBAF1000F14DBCDF8E3
:101E600010A05D46402D00DD4025002D00DA002544
:101E7000CAEB4406802E00DD8026B2B2A9B2049BD4
:101E800098B2149BFFF75EFE0E98802809DC0D982F
:101E9000402806DC0D9AD1B20E9AD0B2149AFFF700
:101EA0006BFE0C98002809DB0B98402806DC0B9A87
:101EB000D1B20C9AD0B2149AFFF75EFE0C980028AB
:101EC00015DB0C9804900B9D402D00DD4025002D66
:101ED00000DA00250C98C0EB4406802E00DD802639
:101EE000B2B2A9B2049B98B2149BFFF72BFE0A98DA
:101EF000802809DC0998002806DB099AD1B20A9AE1
:101F0000D0B2149AFFF738FEB8F1000F09DB089839
:101F1000002806DB089AD1B208F0FF00149AFFF7F8
:101F20002BFEB8F1000F14DBCDF81080089D402D7A
:101F300000DD4025002D00DA0025C8EB4406802E88
:101F400000DD8026B2B2A9B2049B98B2149BFFF7C1
:101F5000F9FD0798802809DC0698402806DC069AD7
:101F6000D1B2079AD0B2149AFFF706FEB9F1000F6A
:101F700009DB0598402806DC059AD1B209F0FF007C
:101F8000149AFFF7F9FDB9F1000F14DBCDF81090AA
:101F9000059D402D00DD4025002D00DA0025C9EB10
:101FA0004406802E00DD8026B2B2A9B2049B98B20E
:101FB000149BFFF7C7FDDDE902108842FFF6EEAE85
:101FC00000BF88E62DE9F04706460C4617461D4639
:101FD000DDF820904FF00008BE4207D14B462A465C
:101FE00021463046FFF752FEBDE8F087AC4206D1ED
:101FF0004B463A4621463046FFF7A4FDF4E7BE4281
:1020000002DDB0463E464746AC4202DDA0462C46C5
:10201000454600BF4B463A4621463046FFF792FD03
:10202000601C84B2AC42F5DD00BFDDE738B5044684
:102030003F237F22002108460094FFF753F938BD63
:102040000146002001E0421C90B211F8013B002B38
:10205000F9D17047014A9080D180704704C70020B1
:10206000F8B50024002500260027FEF719FE0446D7
:1020700004B9F8BD25120120A84080B2ADF80000D7
:102080000B48007800F00200022809D004F002009A
:10209000022805D18DF80200684600F0BBF8E8E799
:1020A00001208DF80200684600F0B4F800BFE0E7B8
:1020B000A000002010B51048006800B910BD002431
:1020C0000D480068007BA8B1FFF764FC0A4800686F
:1020D00001F030FC08480068046A03E0204601F083
:1020E00061FBA468002CF9D100200349096808733A
:1020F000FFF74CFC00BFE1E7A800002010B50A88FC
:1021000003889A4201DD0A8802804A8843889A42FD
:1021100001DD4A8842800A880388D21A83889A1A85
:1021200082804A884388D21AC3889A1AC2808288D9
:1021300003881A440B888C8823449A4205DD8A88D8
:102140000B881A440388D21A8280C28843881A44B2
:102150004B88CC8823449A4205DDCA884B881A44B0
:102160004388D21AC28010BD1CB5FEF77EFC00F079
:10217000BBF8012000F0F6F8064802210023CA014E
:10218000CDE9001004A1074801F0DAFE01F022FABF
:1021900000BFFEE700000020537461727420546198
:1021A000736B0000753000082DE9F04105462C697D
:1021B0000CB9BDE8F0814FF01E081026002795F9F4
:1021C0000A00052802DBA87A001FC7B202E0E46813
:1021D000781EC7B2002FFAD116E031464046FFF70D
:1021E00039FFE868A04204D100216068FFF740FC95
:1021F00003E001216068FFF73BFCE46806F10A0098
:1022000086B2402E00DD01E0002CE6D100BF00BF09
:10221000CFE7000018490988142900DB7047042122
:10222000164A154B1B8802EB031211808278134962
:10223000114B1B8801EB03110A7202880F490E4BE8
:102240001B8801EB0311CA800C490B4A128801EB71
:102250000211C8600A49096891F90010074A064B43
:102260001B8802EB0312518003490988491C024A6A
:10227000118000BFD2E70000A200002018C7002094
:10228000A80000202DE9F04114480088002801DC56
:10229000BDE8F081002612480068046A0F480088F3
:1022A000401E0E4908800F48098800EB0115288858
:1022B00004280FD1AF1D0AE03888A188084028B152
:1022C000608800B268802846E1688847A468002CCE
:1022D000F2D100BF00BF00BFDAE70000A20000207B
:1022E000A800002018C700201CB51C48007800B1C9
:1022F0001CBD00241A48FFF745F901208DF80400A1
:1023000000208DF8060001208DF8070003208DF8CD
:1023100005002020009069461148FEF783F801214E
:102320000846FEF749F901218803FEF775F90120F7
:10233000009000208DF8040001208DF80600032095
:102340008DF8050001208DF8070069460448FEF766
:1023500069F801200149087000BFC9E7300000207A
:102360000000024010B504460A48007808B9FFF79B
:10237000BBFF4CB900BF01210748FEF79BF80028BE
:10238000F9D000F00BF803E020210348FEF79DF898
:1023900010BD0000300000200000024010B50121F7
:1023A00040F2FF40FEF718F901210807FEF724F973
:1023B0000120FEF7D7F800214FF47040FEF74CF9EA
:1023C0004FF47040FEF738F900F00AF80120FEF7EC
:1023D000CFF80120FEF7EAF8FEF7D4F810BD0000B0
:1023E00000B585B001210846FEF7E6F80121880313
:1023F000FEF712F90120039000208DF81000012053
:102400008DF8120003208DF8110001208DF81300C3
:1024100003A91248FEF706F800210846FEF74EF918
:102420000120009000208DF804000C208DF805009C
:1024300001208DF806006846FDF7AAFF06208DF8FA
:10244000080002208DF809008DF80A0001208DF89F
:102450000B0002A8FEF740F805B000BD00000240E6
:102460002DE9FC5F05460E4617469846DDE90CB996
:10247000B9F1000F02D10020BDE8FC9F4FF0000A27
:1024800000240A210020FEF787FE04460CB9002034
:10249000F2E725806680A780A4F8068000202072DD
:1024A00003465A462146CDE90009032001F002F90E
:1024B0000FFA80FA5046DFE770B504460D4624B99E
:1024C0006FF001002880002070BD0026A0B22946D0
:1024D00001F042F9064626B96FF00100288000207D
:1024E000F2E73069F0E7F8B506460D4616B96FF029
:1024F0000100F8BD0020009069463046FFF7DCFF80
:102500000446BDF8000018B1BDF8000040B2F0E785
:10251000207A2844002802DA0020207209E0207A7C
:102520002844642802DD6420207202E0207A2844D6
:102530002072B01201F0BEF90020DAE770B52DED7F
:10254000028B82B004461CB902B0BDEC028B70BD98
:102550009FED270AB0EE408AA088401E217A4843AA
:10256000642190FBF1F000EE100AB8EEC00AB0EE64
:10257000408A012000906588E6883544ABB2258802
:10258000A6883544AAB261882088FFF75DFB012048
:1025900000906588E68835446D1EABB2258800EE54
:1025A000105AB8EE400A30EE080ABCEEC00A10EE2F
:1025B000105AAAB265886D1CA9B225886D1CA8B2F4
:1025C000FFF700FD2288A3881A44921C90B262880B
:1025D000921C91B2FFF73EFD227A06A306A101A844
:1025E000FEF73EF9012101A8FFF742FA00BFABE771
:1025F0000000000025000000256425730000000095
:102600002DE9F04105460E461C4807681C48006845
:10261000001D00F0B5FD50B91948006890F82C1065
:102620000120884017490968814316480160681CE9
:1026300038B936B112480168091D134800F0E9FDA8
:102640001AE07C190E4800684460BC4207D20C486E
:102650000168091D0D48006800F0C1FD0CE0084844
:102660000168091D0A48006800F0B9FD09480068C2
:10267000844201D207480460BDE8F0814800002090
:10268000340000204C000020C84E00203C000020F8
:10269000380000206400002010B5044600F0C6FD9C
:1026A00024480068401C234908602348006840B95A
:1026B000214804600846006801280DD100F0BEF9E9
:1026C0000AE01E48006838B91B480068C06AE16A21
:1026D000884201D81848046019480068401C18490D
:1026E000086008460068606494F82C100120884057
:1026F00014490968084313490860E16A01EB810144
:10270000114A02EB8100211D00F083FD00F0A0FDC5
:102710000A48006868B108480068C06AE16A8842EF
:1027200007D24FF0805009490860BFF34F8FBFF3C5
:102730006F8F10BD440000203400002050000020A6
:10274000600000204C000020F84B002004ED00E069
:1027500010B500F06BFD10480068D0B90F4800F0CC
:102760002EFD0F4800F02BFD0C480E4908600C4868
:102770000D49086000221021142001F0BFF906491C
:1027800008600846006820B108A10348006800F00E
:102790009DFD00F05DFD10BD78000020DC4E0020A6
:1027A000F04E00207000002074000020546D725123
:1027B0000000000070B523E000F044FF13480068FB
:1027C00008B9012000E00020054601F00FFDBDB969
:1027D00000F02CFD0D48C068C468201D00F0D0FC3E
:1027E0000B480068401E0A4908600A480068401EFD
:1027F0000849086000F02CFD204600F060F800BF9A
:10280000044800680028D7D170BD0000B44E0020F5
:10281000440000204000002070B504460D46206CA6
:1028200070B1216CE0680844E0606168E06888424B
:1028300001D32068E0602846226CE168FDF71CFDAA
:1028400070BD2DE9F04104460F4615464FF00008D3
:10285000A66B206C40B9206860BB606801F044FC46
:1028600080460020606025E07DB93946226CA06872
:10287000FDF702FD216CA0680844A060D4E90110B6
:10288000884217D32068A06014E03946226CE068C3
:10289000FDF7F2FC216CE068401AE0602168E06816
:1028A000884203D2216C6068401AE060022D01D199
:1028B00006B1761E701CA0634046BDE8F08110B5DD
:1028C0000446206B00F0D4FC204600F0D1FC10BD83
:1028D0000146084A126812680AB9012200E0002283
:1028E0000A600A6822B9034A1268D268106800E0D8
:1028F000002070477000002030B54FF4F0431748B7
:1029000000F007042CB1C01D20F00700134C041B7D
:102910001B1B0246124C22600024114D6C60D01823
:10292000083820F007000F4C206000240D4D2D6862
:102930006C600C4D2D682C601146441A4C60094C9B
:1029400024680C60084D4C682C60084D4C682C6065
:102950004FF00044064D2C6030BD0000044F0020B5
:10296000840000208C0000209400002090000020B3
:102970009800002000BFFFF71DFFFCE72DE9F041A4
:1029800006460D4617469846069C0DB9246000E0A1
:102990002760E66325640121204601F079F984F877
:1029A00050800020A064BDE8F0812DE9F05F8146F1
:1029B0000F4690469A460A9E0C9C4FEA8801A52233
:1029C000206BFDF76BFCA8F10100216B01EB800B84
:1029D0002BF0070B002507E0795D04F13400415529
:1029E000785D00B902E06D1C102DF5D300BF002109
:1029F00043200155202E00D31F26E662E664002006
:102A00002065201D00F0E8FB04F1180000F0E4FB55
:102A10002461C6F12000A061646200206065A065A9
:102A200084F85C0052464946584600F0FBFA2060A4
:102A30000B9808B10B980460BDE8F09F10B5002416
:102A400007E004EB84010F4A02EB810000F0B7FBC2
:102A5000641C202CF5D30C4800F0B1FB0B4800F0AF
:102A6000AEFB0B4800F0ABFB0A4800F0A8FB0A489D
:102A700000F0A5FB044809490860044808490860BB
:102A800010BD0000F84B0020784E00208C4E002036
:102A9000A04E0020B44E0020C84E00203800002078
:102AA0003C00002010B50146164800E000680368AD
:102AB0008B42FBD30246436813448B4204D14368E4
:102AC0004C682344436001460A464B68134404683B
:102AD000A34211D10C4C03682468A34208D04B6870
:102AE0000468646823444B6003681B680B6005E05E
:102AF000054B1B680B6001E003680B60884200D047
:102B0000016010BD840000208C0000202DE9F04100
:102B100004460D4616461F464FF0000865602461C6
:102B2000B5420CD8F01BA169884202D34FF00108CE
:102B300011E0211D0948006800F051FB0BE0BE4286
:102B400004D2BD4202D34FF0010804E0211D044825
:102B5000006800F044FB4046BDE8F08174000020AE
:102B60007000002070B5054600F060FBA86B08B946
:102B7000012400E0002400F06BFB204670BD70B51E
:102B8000054600F053FBA86BE96B884201D1012494
:102B900000E0002400F05CFB204670BD2DE9F3410D
:102BA0000D460098846C0027A06BE16B88421BD215
:102BB00094F945602A4669462046FFF742FE0746DB
:102BC000701C60B9606A08B9012000E0002050B9AB
:102BD00004F1240001F0CAFA28B1012703E0701CB7
:102BE00040B284F8450000BF3846BDE8FC810000D3
:102BF000F8B505460E4610480068C068C468201D38
:102C000000F0BEFAE069012811D1A06941192B46F4
:102C100032462046FFF77AFF48B1002003462A4695
:102C200001460090204601F073FB074600BF204696
:102C3000616A8847F8BD000070000020F0B587B0D9
:102C400056E00398002805DA04AED6E90020B16802
:102C5000904700BF039800284ADB059C606908B9CB
:102C6000012000E0002010B9201D00F089FA02A820
:102C700000F0A0F8054603980A2837D2DFE800F0F4
:102C80000905072527320608262800BF00BF00BF18
:102C900000BF0498A269811803462A462046FFF720
:102CA00035FF88B12046616A8847E06901280BD169
:102CB000002000900498A16942180023194620467C
:102CC00001F026FB074600BF11E000BF0FE000BF88
:102CD0000498A061A06941192B462A462046FFF7B7
:102CE00015FF04E0204600F0C3FA00E000BF00BF7B
:102CF00000231A4603A90448006800F01BFF0028BF
:102D00009FD107B0F0BD000078000020F8B505465F
:102D10000C4600F097FC684600F04CF80646009818
:102D200020BB44B9B54206D801F060FA31462846C6
:102D3000FFF75EFF1CE03CB10E480068006808B970
:102D4000012000E000200446A91B22460A48006832
:102D500000F0D2FA01F04AFA50B94FF0805007491A
:102D60000860BFF34F8FBFF36F8F01E001F03EFAB1
:102D7000F8BD0000740000207800002004ED00E0A1
:102D80000A490968096809B9012100E0002121B157
:102D90004FF0FF31064A116006E004490968C9682E
:102DA000C868034A4168116070470000380000207D
:102DB0006400002070B5044601F002F9054607489A
:102DC0000068854204D200F00BF80120206001E089
:102DD0000020206001480560284670BD800000206A
:102DE0002DE9F84326E01D480068C06805681B48C7
:102DF0000068C068C468201D00F0C2F92046616AFE
:102E00008847E069012815D1A0694619AE4207D963
:102E100066602461211D1148006800F0E0F909E0B6
:102E2000002003462A4601460090204601F070FA31
:102E3000804600BF09480068006808B9012000E02A
:102E400000200028CFD005480768054800680349DE
:102E5000086003480760BDE8F883000070000020A8
:102E60007400002000BF502080F31188BFF34F8F03
:102E7000BFF36F8F00BF00BFFEE708B500BF684615
:102E8000FFF726FD044620460099FFF73FFFFFF7B6
:102E9000D5FEF4E770B5044600F0C8F994F9455042
:102EA0001AE0A06C38B100212046FFF777FE88B108
:102EB00000F002FB0EE0606A08B9012000E000208B
:102EC00038B904F1240001F051F918B100F0F4FA16
:102ED00000E003E0681E45B2002DE2DC00BFFF20E9
:102EE00084F8450000F0B4F900F0A0F994F94450DA
:102EF00010E0206908B9012000E0002048B904F181
:102F0000100001F033F908B100F0D6FA681E45B29E
:102F100000E001E0002DECDC00BFFF2084F844005D
:102F200000F096F970BD00002DE9F04105464FF024
:102F3000000800F087FB2E48006808B9FFF7DCFCAA
:102F40002C4800682840002847D145B1083505F0D5
:102F5000070020B105F00700C0F108000544002D6E
:102F60003BD025480068854237D8244E3046046857
:102F700001E0264624686068A84202D22068002842
:102F8000F7D11B480068844227D0306800F1080858
:102F9000206830606068401B102807D96719606896
:102FA000401B786065603846FFF77CFD1249606819
:102FB0000968081A1049086008460068104909683D
:102FC000884203D20C4800680D49086009496068CE
:102FD0000968084360600020206001F007F9B8F13B
:102FE000000F01D100F0E0F84046BDE8F08100009C
:102FF0008C00002098000020900000208400002019
:10300000940000200648006830B10549096801F1C4
:103010005000096D491C01600148006870470000BC
:1030200034000020001F4FF080730360001F21F068
:1030300001030360001F054B036014380260001F8A
:103040006FF002030360203870470000652E00080F
:10305000704708B500BF00F0B3FF009009E0FDF72E
:10306000E3FFFDF7A3FEFEF7FBFF0521684600F036
:1030700083F9F4E71CB5044600F0D8F800200221DB
:1030800003468022CDE900100AA10D4800F058FF48
:103090000020042103468A01CDE9001009A10D4852
:1030A00000F04EFF0C48006800F0A0F900F0D0F8E6
:1030B0001CBD00004C4544205461736B00000000AF
:1030C00053300008446973706C6179205461736BEC
:1030D00000000000DD300008000000201CB50025C5
:1030E00000BF00BF00BF00BF00BF00260027A846EA
:1030F000FEF736FC05221FA1012000F095FB0446D7
:1031000001200A2350221421CDE900041846FFF7BC
:10311000A7F9064602200A2350222321CDE9000404
:103120001846FFF79DF9074603200A235022322153
:10313000CDE900041846FFF793F9804618E0FEF742
:10314000BEFD681C85B2642095FBF0F100FB1150B8
:1031500058B901213046FFF7C6F902213846FFF77A
:10316000C2F903214046FFF7BEF9012000F0EAF85A
:10317000E5E7000077696E646F772031000000009A
:1031800001460A69D1E901309860D1E9010358602C
:103190005068884201D1886850600020086110683A
:1031A000401E10601068704700BF502080F31188E7
:1031B000BFF34F8FBFF36F8F00BF00BFFEE700F17B
:1031C000080141604FF0FF31816000F10801C160EA
:1031D000016100210160704700210161704710B555
:1031E00002460B685C1C0CB9106907E002F108008C
:1031F00000E04068446824689C42FAD944684C6006
:103200004C68A160886041600A611468641C1460A5
:1032100010BD42684A6093688B6093685960916002
:10322000086103685B1C03607047000000BF50200A
:1032300080F31188BFF34F8FBFF36F8F00BF034838
:103240000068401C01490860704700009C00002095
:1032500006480068401E054908600846006820B915
:10326000002080F3118800BF00BF70479C00002041
:1032700070B506463546D6B1083D2C460C49606807
:103280000968084098B1206888B9094960680968E8
:103290008843606000F0D6F9064960680968084410
:1032A000044908602046FFF7FDFB00F09FFF70BD5A
:1032B000980000209000002003484FF0E021486172
:1032C00007200861704700001F48010002460020E7
:1032D0000BE0084B53F8303033B9064B43F830104D
:1032E00003EBC0035A6002E0401C0A28F1D300BF80
:1032F00070470000A84B00202DE9F04105460E461E
:1033000017462C46FFF792FF94F94400401C10B971
:10331000002084F8440094F94500401C10B90020B6
:1033200084F84500FFF794FFA06B28B93A46314670
:1033300004F1240000F0D6F82046FFF7ABFDBDE80D
:10334000F081000070B50446002544B100F07AF920
:1033500000212046FFF754F900F048FF05463DB92B
:103360004FF0805003490860BFF34F8FBFF36F8F5A
:1033700070BD000004ED00E02DE9F04704468846EA
:103380004FF0000900F05EF916480668206800EB6F
:1033900008052068B04207D92068A8420BD9B54279
:1033A00009D94FF0010906E02068A84201D8B542CA
:1033B00001D94FF001092560B9F1000F03D0A81B16
:1033C0000021FFF71DF900F011FF07463FB94FF04C
:1033D000805005490860BFF34F8FBFF36F8FBDE882
:1033E000F08700004800002004ED00E070B50546BD
:1033F000FFF71CFF15B92748006800E0284604467F
:10340000201DFFF7BDFE78B9E06A00EB800022497D
:1034100051F8200040B994F82C10012088401F4931
:10342000096881431D480160A06A18B104F11800C1
:10343000FFF7A6FE1A480068401C194908601548A5
:103440000068844209D1211D1648FFF7E2FE1648A4
:103450000068401C1449086009E014480068401ED8
:10346000124908602046FFF72AFAFFF789FCFFF7A8
:10347000EFFE0F48006858B106480068844207D143
:103480004FF080500B490860BFF34F8FBFF36F8F31
:1034900070BD000034000020F84B00204C000020DC
:1034A00060000020B44E00204000002044000020B6
:1034B0005000002004ED00E0012001490860704741
:1034C0005800002070B505460C46054801681831C3
:1034D0002846FFF784FE01212046FFF791F870BDD2
:1034E0003400002070B506460D46144606480168B3
:1034F00018313046FFF78DFE0CB14FF0FF352146F5
:103500002846FFF77DF870BD3400002070B50546F1
:103510002C46002D4BD02649E06A0968C96A8842CA
:1035200045D2A06900F0004028B921480068C06A6F
:10353000C0F12000A061E16A01EB81011D4A02EBAC
:1035400081016069884201D1012000E0002050B370
:10355000201DFFF715FE78B9E06A00EB80001549E1
:1035600051F8200040B994F82C10012088401249ED
:1035700009688143104801600D480068C06AE06234
:1035800094F82C10012088400B49096808430A4927
:103590000860E16A01EB8101064A02EB8100211D0E
:1035A000FFF737FE03E002480068C06AE06270BDC2
:1035B00034000020F84B00204C000020034909682B
:1035C0000160034909684160704700005C00002009
:1035D000480000201CB5144800210B469622CDE976
:1035E000001012A1134800F0ABFC0446012C02D1DC
:1035F00000F070FE0446012C14D100BF502080F36F
:103600001188BFF34F8FBFF36F8F00BF4FF0FF30B4
:10361000094908600120094908600020084908603C
:1036200000F02EFA1CBD00006800002049444C4503
:1036300000000000752900086400002050000020F0
:103640004800002002480068401C0149086070479B
:103650006C0000201248006818B101201149086070
:103660001DE000200F4908600F480068B0FA80F0A4
:10367000C0F11F0101EB81020C4B03EB8200426899
:103680005268426000F108024368934202D14268E6
:10369000526842604268D268054B1A6000BF7047AA
:1036A0006C000020580000204C000020F84B002047
:1036B000340000202DE9FF4F81B006460F469346A7
:1036C000DDF83C800024A1460025A24600200090A1
:1036D000B8F1000F00D01FB9002005B0BDE8F08F91
:1036E00014210020FDF758FD04460CB90020F4E732
:1036F00026704FEA882040EA861040EA0B0060807E
:103700000020A0600498A0800E98E06027616946C0
:10371000404600F0F5F80546A888401CA880012026
:103720002873286A28B92C620AF1010000F0FF0A08
:103730000EE0D5F8209005E0D9F808900AF10100D4
:1037400000F0FF0AD9F808000028F5D1C9F80840B0
:1037500084F801A06088C0E72DE9F04105460E46D7
:103760002DB96FF0010030800020BDE8F081002706
:103770000024A80A314600F0C3F807460FB1386AA2
:1037800008B90020F1E73C6A04E06088A84200D153
:1037900002E0A468002CF8D100BF00203080204651
:1037A000E3E70000F8B5044604B9F8BD0020009036
:1037B00061888812694600F0A3F80546E88A19492D
:1037C0004881298B17488181A98B0182698BC1812E
:1037D0002078072823D2DFE800F022040E13181DFA
:1037E000090026693046FDF759FF18E02669304682
:1037F000FEF730F813E026693046FEF7D5FC0EE000
:1038000026693046FEF79AFE09E026693046FFF742
:103810001FFC04E02669304600F0E2F800BF00BF5C
:1038200000BFC2E704C700202DE9F04105460E465F
:10383000174628210020FDF7AFFC04461CB94FF0C5
:10384000FF30BDE8F0810020E081002121827F214E
:1038500061823F21A182A660A0806062206268B27E
:103860002070678001202073A07800F0040060B110
:10387000E089401CE082208A0E302083608A801E0E
:103880006083A08A0F38A08307E0E089E082218A64
:103890002183618A6183A18AA183204600F01AF8FE
:1038A00003480088401C0249088094F90000C8E7DA
:1038B000A400002038B5044600250020009004B97B
:1038C00038BD6946204600F01BF8054601202873E4
:1038D00000BFF5E7014611B94FF0FF307047887817
:1038E00000F0010008B10448016004480068486223
:1038F000024801600020F1E7A8000020AC00002091
:1039000002460B4622B96FF0010018800020704774
:103910000748016805E091F90000904200D102E0FB
:10392000496A0029F7D100BF002018800846EEE759
:10393000AC000020F8B5044600250026E0892749A0
:103940004881218A25488181618AC181A18A0182B9
:10395000A07800F0020000B1F8BD01200090B4F89A
:103960000EC0678A6744BAB2278A0E37BBB2218A73
:103970006046FEF727FB01200090B4F810C0A78A2C
:103980006744BBB2B4F80EC0678A6744BAB2218AF2
:103990006046FEF759F9A068FEF752FB618A0622DD
:1039A00002FB101707EBD770401005B20B49087ADD
:1039B000FDF7BEFFC0F10E0707EBD7704610228A55
:1039C000324491B2E2892A4490B2FEF743FB0021CF
:1039D000A068FEF74DF800BFBEE7000004C7002056
:1039E000F8B50446002500262088244948816188CE
:1039F00022488181A188C181E18801820120009053
:103A00002788B4F804C06744BAB267880E37BBB2DF
:103A100061882088FEF7D6FA012000906788B4F804
:103A200006C06744BBB22788B4F804C06744BAB282
:103A300061882088FEF708F9A068FEF701FBA188DD
:103A4000062202FB101707EBD770401005B20B4996
:103A5000087AFDF76DFFC0F10E0707EBD77046102F
:103A60006288324491B222882A4490B2FEF7F2FA78
:103A70000021A068FDF7FCFFF8BD000004C700208E
:103A800010B50E48006840F470000C490860084604
:103A9000006840F070400860FFF70EFC0020084905
:103AA0000860FCF79BFB0748006840F04040054970
:103AB0000860FCF783FB002010BD000020ED00E053
:103AC0009C00002034EF00E010B500BF502080F3D0
:103AD0001188BFF34F8FBFF36F8F00BF00F076FAEE
:103AE00018B14FF080500449086000BF002080F3F7
:103AF000118800BF10BD000004ED00E02DE9F8437F
:103B000007460D4690460DB9002601E007FB05F675
:103B100006F15400FFF708FA044644B104F15409D1
:103B200043464A46294638460094FEF727FF20467A
:103B3000BDE8F8832DE9FF4782B0054689461E4659
:103B40004FF0000A2C4600BFFFF770FBD4F8388016
:103B5000B8F1000F3BD0E76849462046FEF75CFE0F
:103B6000DEB9A8F10100A063206810B9FFF74AFA96
:103B70006060206908B9012000E0002008BB04F162
:103B8000100000F0F3FAE0B14FF080503F490860B8
:103B9000BFF34F8FBFF36F8F13E0E760606A08B920
:103BA000012000E0002060B904F1240000F0DEFAFA
:103BB00038B14FF0805035490860BFF34F8FBFF3E5
:103BC0006F8FFFF745FB012006B0BDE8F087049832
:103BD00018B9FFF73DFB0020F6E7BAF1000F04D15A
:103BE0006846FFF7EBFC4FF0010AFFF731FBFFF7E8
:103BF00029FDFFF71BFB94F94400401C10B900207D
:103C000084F8440094F94500401C10B9002084F861
:103C10004500FFF71DFB04A9684600F063F940BBAF
:103C20002046FEF79FFFF0B1206830B9FFF7FEFA9B
:103C30006068FFF76BFCFFF70BFB04F124000499AD
:103C4000FFF740FC2046FFF725F900F0CFFA0028E7
:103C50007FF47AAF4FF080500C490860BFF34F8F6C
:103C6000BFF36F8F70E72046FFF714F900F0BEFA3C
:103C70006AE72046FFF70EF900F0B8FA2046FEF793
:103C800071FF0028EED000209EE7000004ED00E068
:103C900070B505460E462C46FFF7C8FAD4E90F1258
:103CA000206801FB020060600020A0632068A06023
:103CB000E06B401E226C216800FB0210E060FF20D8
:103CC00084F8440084F845009EB9206908B90120B1
:103CD00000E00020A8B904F1100000F047FA80B11C
:103CE0004FF0805009490860BFF34F8FBFF36F8FCB
:103CF00007E004F11000FFF762FA04F12400FFF777
:103D00005EFAFFF7A5FA012070BD000004ED00E0A7
:103D10002DE9FF4383B0074688461D464FF0000952
:103D20003C4600BFFFF782FAA06BE16B884201D3EB
:103D3000022D38D12A4641462046FEF782FD06462E
:103D4000A06C68B129462046FEF728FF28B34FF043
:103D500080503C490860BFF34F8FBFF36F8F1CE06A
:103D6000606A08B9012000E0002068B904F124006D
:103D700000F0FCF988B14FF0805032490860BFF381
:103D80004F8FBFF36F8F08E03EB14FF080502D4949
:103D90000860BFF34F8FBFF36F8FFFF759FA012011
:103DA00007B0BDE8F083059818B9FFF751FA002075
:103DB000F6E7B9F1000F04D101A8FFF7FFFB4FF0C0
:103DC0000109FFF745FAFFF73DFCFFF72FFA94F9D9
:103DD0004400401C10B9002084F8440094F94500C8
:103DE000401C10B9002084F84500FFF731FA05A9FE
:103DF00001A800F077F8F0B92046FEF7C0FEA0B1A8
:103E000004F110000599FFF75DFB2046FFF742F82B
:103E100000F0ECF9002885D14FF080500949086086
:103E2000BFF34F8FBFF36F8F7CE72046FFF732F869
:103E300000F0DCF976E72046FFF72CF800F0D6F921
:103E40000020ADE704ED00E02DE9F05F06468A466C
:103E500015461F46344600BF5021EFF3118081F311
:103E60001188BFF34F8FBFF36F8F00BF8146A06BE8
:103E7000E16B884201D3022F2BD194F945B03A4629
:103E800051462046FEF7DDFC0BF10100C8B9A06CDD
:103E900040B139462046FEF781FEB8B1B5B10120E8
:103EA000286013E0606A08B9012000E0002068B9CA
:103EB00004F1240000F05AF940B13DB1012028601E
:103EC00004E00BF1010040B284F845004FF0010816
:103ED00001E04FF0000800BF89F3118800BF4046A1
:103EE000BDE8F09F70B504460D46FFF79FF91248F4
:103EF00002682868401C08B9002619E00F492068AC
:103F00000968884204D06068904201D801260FE019
:103F10006068101A2968884209D228686168511AB5
:103F2000401A28602046FFF749FB002600E00126E2
:103F3000FFF78EF9304670BD480000205C0000207D
:103F40002DE9FF4F85B0804689461746DDE912AB63
:103F5000B800FEF7E9FF064656B16020FEF7E4FF21
:103F600004460CB1266304E03046FFF781F900E017
:103F700000247CB10020CDE900ABCDE902403A46F7
:103F800049464046089BFEF710FD2046FEF784FB9D
:103F9000012501E04FF0FF35284609B0BDE8F08F5C
:103FA0000549096809B9012005E00449096809B90A
:103FB000022000E000207047500000206C0000202C
:103FC0000149086870470000480000202DE9F041D1
:103FD00000273A480068002863D139480068451C2A
:103FE000374805608DB93748D0F8008036480068FA
:103FF000344908603448C0F8008034480068401CE8
:1040000032490860FEF7BCFE00BF314800688542B7
:104010003BD300BF2B480068006808B9012000E0CE
:10402000002020B14FF0FF30294908602CE02548DE
:104030000068C068C4686668B54202D22448066059
:1040400022E0201DFFF79CF8A06A18B104F11800C7
:10405000FFF796F894F82C10012088401D49096854
:1040600008431C490860E16A01EB81011A4A02EB2E
:104070008100211DFFF7CDF81849E06A0968C96A77
:104080008842C7D30127C5E700BF14480068C06A4B
:1040900000EB8000104951F82000012800D90127C9
:1040A00004E00F480068401C0D4908600D48006896
:1040B00000B101273846BDE8F08100006C00002007
:1040C00048000020380000203C0000205C00002058
:1040D000640000204C000020F84B00203400002039
:1040E000540000205800002070B505462C460026DC
:1040F000ADB3206D401E2065E16CE06A88422ED091
:10410000206D60BB201DFFF73BF878B9E06A00EB3B
:104110008000144951F8200040B994F82C10012077
:1041200088401149096881430F480160E06CE062F2
:10413000E06AC0F12000A06194F82C1001208840B2
:1041400009490968084308490860E16A01EB8101EF
:10415000044A02EB8100211DFFF75BF8012630467F
:1041600070BD0000F84B00204C00002070B50646E2
:10417000F068C46804F11800FFF702F815480068F9
:10418000A8B9201DFEF7FCFF94F82C1001208840F0
:1041900011490968084310490860E16A01EB81018F
:1041A0000E4A02EB8100211DFFF733F804E004F111
:1041B00018010B48FFF72DF80A49E06A0968C96A37
:1041C000884204D9012501200749086000E0002544
:1041D000284670BD6C0000204C000020F84B0020E9
:1041E000A04E0020340000205800002070B50024AC
:1041F0000026FFF71BF82E480068401E2C49086077
:104200000846006800284FD12A48006800284BD093
:1042100024E02948C068C46804F11800FEF7B0FF24
:10422000201DFEF7ADFF94F82C1001208840234993
:104230000968084321490860E16A01EB8101204ACD
:1042400002EB8100211DFEF7E4FF1E49E06A0968C8
:10425000C96A884202D301201B49086016480068D9
:1042600008B9012000E000200028D2D00CB1FEF7F0
:1042700087FD1648056865B100BFFFF7A7FE10B1BE
:104280000120114908606D1E002DF6D100200F4954
:1042900008600D48006838B1012630070C490860F5
:1042A000BFF34F8FBFF36F8FFEF7D2FF304670BD65
:1042B0006C00002044000020A04E00204C00002094
:1042C000F84B00203400002058000020540000204B
:1042D00004ED00E01CB50024FEF73AFA0748006838
:1042E00050B10748012100239622CDE9001005A115
:1042F0000648FFF725FE044620461CBD7800002036
:104300007C000020546D7220537663007B2E0008E1
:104310002DE9FF4705460C4616461F46DDF830805E
:104320004FF000091448006810B3009401960295FC
:10433000062C15DAFFF734FE022808D10023424686
:1043400069460D480068FFF7E3FC814610E0002352
:104350001A46694608480068FFF7DAFC814607E01C
:1043600000233A46694604480068FFF76DFD814620
:10437000484604B0BDE8F087780000200002000045
:1043800020000000004000000000000000000000CD
:1043900060FA600000E0C000E0C000247E247E24BB
:1043A0000024D456480000C6C81026C6006C926A85
:1043B000040A0000E0C0000000007C820000000051
:1043C000827C000000107C387C100010107C1010E3
:1043D0000000070600000010101010100000060674
:1043E0000000000408102040007C8A92A27C00009B
:1043F00042FE020000468A92926200449292926CBF
:1044000000182848FE0800F49292928C003C5292C8
:10441000920C00808E90A0C0006C9292926C006012
:104420009292947800003636000000003736000083
:104430000010284482000024242424240000824404
:1044400028100040809A9060007C82BAAA78007E92
:104450008888887E00FE9292926C007C82828244E0
:1044600000FE8282827C00FE9292928200FE9090F8
:104470009080007C8292925E00FE101010FE000080
:1044800082FE8200000C020202FC00FE1028448220
:1044900000FE0202020200FE402040FE00FE40201C
:1044A00010FE007C8282827C00FE90909060007CF6
:1044B000828A847A00FE9090986600649292924C70
:1044C000008080FE808000FC020202FC00F80402F2
:1044D00004F800FC023C02FC00C6281028C600E0DC
:1044E000100E10E0008E92A2C2000000FE82820038
:1044F00000402010080400008282FE00002040805E
:1045000040200101010101010000C0E000000004A1
:104510002A2A2A1E00FE2222221C001C22222214E9
:10452000001C222222FE001C2A2A2A1000107E9043
:10453000900000182525253E00FE20201E000000CA
:1045400000BE020000020121BE0000FE081422008D
:10455000000000FE0200003E2018201E003E202029
:104560001E00001C2222221C003F2222221C001CB2
:104570002222223F00221E22201000102A2A2A0472
:1045800000207C222400003C02043E00003804028B
:104590000438003C060C063C00360808360000399A
:1045A00005063C0000262A2A320000107C82820088
:1045B000000000EE0000000082827C10004080407D
:1045C000800000000000000000000000000000006B
:1045D00000003F40000000000000000030004000EC
:1045E00030004000000009000BC03D000BC03D0042
:1045F000090018C024407FE02240318000001800EC
:1046000024C01B000D803240018003801C402740E5
:104610001C80074000401000600000000000000007
:1046200000000000000000001F802040402000002B
:10463000402020401F8000000000090006001F806D
:10464000060009000000040004003F80040004008C
:1046500000000010006000000000000000000400E6
:1046600004000400040004000000000000400000FA
:10467000000000000000002001C0060038004000DB
:1046800000001F802040204020401F8000000000CC
:1046900010403FC000400000000018C021402240F0
:1046A00024401840000010802040244024401B80FB
:1046B000000002000D0011003FC0014000003C80DE
:1046C000244024402440238000001F8024402440B4
:1046D0003440038000003000200027C03800200054
:1046E00000001B802440244024401B8000001C004C
:1046F00022C0224022401F8000000000000008402D
:104700000000000000000000000004600000000045
:104710000000000004000A00110020804040090051
:104720000900090009000900000000004040208045
:1047300011000A0004001800200023402400180083
:1047400000001F802040274029401F4000000040FB
:1047500007C039000F0001C0004020403FC0244086
:1047600024401B8000001F802040204020403080DB
:10477000000020403FC0204020401F80000020401B
:104780003FC024402E4030C0000020403FC02440A5
:104790002E00300000000F001080204022403380A7
:1047A000020020403FC0040004003FC020402040E1
:1047B00020403FC0204020400000006020202020FA
:1047C0003FC02000200020403FC024400B0030C0EC
:1047D000204020403FC020400040004000C03FC07B
:1047E0003C0003C03C003FC0000020403FC00C40E4
:1047F00023003FC020001F802040204020401F8019
:10480000000020403FC024402400180000001F800A
:104810002140214020E01FA0000020403FC0244054
:10482000260019C0004018C0244024402240318096
:104830000000300020403FC0204030000000200039
:104840003F80004000403F80200020003E0001C02B
:10485000070038002000380007C03C0007C03800BF
:104860000000204039C0060039C020400000200070
:10487000384007C0384020000000304021C02640AA
:10488000384020C00000000000007FE040204020B1
:104890000000000070000C000380004000000000D9
:1048A000402040207FE00000000000002000400089
:1048B0002000000000000010001000100010001088
:1048C0000010000000004000000000000000000098
:1048D00002800540054003C0004020003FC0044066
:1048E00004400380000000000380044004400640B0
:1048F000000000000380044024403FC0004000004E
:1049000003800540054003400000000004401FC034
:10491000244024402000000002E0055005500650CD
:10492000042020403FC00440040003C000400000B9
:10493000044027C0004000000000001000100410D8
:1049400027E00000000020403FC00140070004C0F5
:104950000440204020403FC000400040000007C00D
:10496000040007C0040003C00000044007C0044066
:10497000040003C0004000000380044004400380A2
:104980000000041007F00450044003800000000001
:1049900003800440045007F00010044007C00240A8
:1049A000040004000000000006400540054004C06B
:1049B0000000000004001F800440004000000400CC
:1049C00007800040044007C000400400070004C006
:1049D000018006000400060001C0070001C00600B7
:1049E0000000044006C0010006C00440000004109E
:1049F000071004E00180060004000000044005C028
:104A00000640044000000000000004007BE040205D
:104A10000000000000000000FFF0000000000000A7
:104A200040207BE0040000000000400080004000C7
:104A300020002000400000000000000000000000F6
:104A40000000000000000000000000000000000066
:104A50000000000000000000000000000000000056
:104A60000000000000000000000F80380FFE380F2B
:104A7000803800000000000000000000000000007E
:104A8000000000000100000600000C0000380000DB
:104A90003100000600000C0000380000300000006B
:104AA00000000000000061800067F807F9800061E5
:104AB000800061800061800061800067F807F980F4
:104AC00000618000000000000000000001C0E00361
:104AD000E0F00630080418081FFFFE040E080787E0
:104AE000F00381E000000000000001F000060C006F
:104AF000040408060C7001F9C0000E00003BE00041
:104B0000EC18070808040C180003E000000000017E
:104B1000E00007F003F818041C0804170807E1D0A8
:104B200003C0E00023B0003C080020080000100093
:104B300000000000000100003100003200001C00F5
:104B40000000000000000000000000000000000065
:104B50000000000000000000000000000000000055
:104B60000000000000007F0001FFC00780F00C0083
:104B700018100004200002000000000000200002C5
:104B80001000040C00180780F001FFC0007F000037
:104B90000000000000000000000000000000000015
:104BA00000004200006600006600003C00001800A3
:104BB00003FFC0001800003C000066000066000013
:104BC0004200000000000800000800000800000883
:104BD0000000080001FFC0000800000800000800F5
:104BE0000008000008000000000000010000310083
:104BF000003200001C000000000000000000000067
:104C0000000000000000000000000000000008009C
:104C1000000800000800000800000800000800006C
:104C20000800000800000800000800000000000064
:104C300000000000000038000038000038000000CC
:104C40000000000000000000000000000000000064
:104C5000000000000000000600001C0000700001C1
:104C600080000E0000380000C0000700001C00009B
:104C7000300000000000000000007F8001FFE00322
:104C8000807006001804000804000806001803805D
:104C90007001FFE0007F80000000000000000000C5
:104CA00001000801000801000803FFF807FFF800F1
:104CB00000080000080000080000000000000000DC
:104CC0000001C03802C058040098040118040218FA
:104CD000040418061C1803F81801E0F8000000008E
:104CE000000000000001C0E003C0F0040008040858
:104CF0000804080806180803F41801E7F00001E0AA
:104D0000000000000000000000000300000D000093
:104D1000110000610000810803010807FFF80FFF80
:104D2000F80001080001080000000000000000E099
:104D300007FCD0060808061008061008061008062A
:104D40001838060FF00607C0000000000000000041
:104D500000003F8001FFE0038430020818041008BF
:104D6000041008041008071810030FF00007C00013
:104D7000000000000000000003C000070000060063
:104D8000000600F80607F806180006E00007000015
:104D900006000000000000000001E1E003F7F0065B
:104DA0003410041808041808040C08040C0806162B
:104DB0001803F3F001C1E000000000000000F8005B
:104DC00003FC300306380402080402080402080445
:104DD00004100308F001FFC0007F00000000000085
:104DE000000000000000000000000000000070381B
:104DF0000070380070380000000000000000000063
:104E000000000000000000000000000000000000A2
:104E10000000301A00301C000000000000000000FC
:104E2000000000000000000000000000000800007A
:104E300014000022000041000080800100400200B8
:104E400020040010080008000000000000002100FD
:104E500000210000210000210000210000210000AD
:104E600021000021000021000021000000000000BE
:104E700000000000080008040010020020010040AB
:104E800000808000410000220000140000080000A3
:104E9000000000000003C00004C00004000008007F
:104EA00038080F380808380810000C300007E000F8
:104EB00003C000000000000000003F8000FFE0038E
:104EC0008070020F1006708804C088048308047F75
:104ED0008802C09003012000FE4000000800001876
:104EE0000001F8003E0801C20007020007E20000CE
:104EF000FE00001FC80001F8000038000008040090
:104F00000807FFF807FFF804080804080804080861
:104F100004080806180803F41801E7F00001E0008F
:104F20000000000000003F8001FFE00380700200ED
:104F300018040008040008040008040010060020FB
:104F40000780C000000004000807FFF807FFF8040E
:104F50000008040008040008040018020010038080
:104F60007001FFE0007F8000000004000807FFF8E8
:104F700007FFF804080804080804080804080804DF
:104F80003E0804000806001801006000000004004C
:104F90000807FFF807FFF8040808040800040800E1
:104FA000040800043E000600000600000180000026
:104FB0000000000000003F8001FFE0038070060059
:104FC000180400080402080402080203F00783F032
:104FD00000020000020004000807FFF807FFF804C1
:104FE0000808000800000800000800000800040885
:104FF0000807FFF807FFF8040008000000000000A1
:1050000004000804000804000807FFF807FFF8047C
:105010000008040008040008000000000000000070
:105020000000000600000700000104000104000168
:1050300004000307FFFE07FFFC0400000400000457
:10504000000004000807FFF807FFF8040C08001828
:1050500000003E0004C7800503C80600F8040038BD
:1050600004001800000804000807FFF807FFF80410
:105070000008000008000008000008000008000008
:105080000800001800006000000004000807FFF896
:1050900007800807FC00007FC00003F80007C0007D
:1050A000780007800807FFF807FFF80400080400ED
:1050B0000807FFF807000803C00000E00000380000
:1050C000001E000007000001C00400F007FFF80404
:1050D0000000000000007F8001FFE00380700600F8
:1050E0001804000804000806001803003001FFE05F
:1050F000007F8000000004000807FFF807FFF804A5
:105100000408040400040400040400040400060C61
:105110000003F80001F000000000000000007F80A4
:1051200001FFE00380700600880400880400C806C0
:10513000003C03003E01FFE6007F84000000040005
:105140000807FFF807FFF8040808040800040C002B
:10515000040F00040BC00610F003F03801E0080053
:10516000000800000001E0F803F0300630100418D9
:1051700008041808040C08040C080206180207F0BA
:105180000781E00000000180000600000400000428
:10519000000004000807FFF807FFF80400080400F7
:1051A0000004000006000001800004000007FFE08A
:1051B00007FFF004001800000800000800000800C5
:1051C000000800000804001007FFE00400000400CD
:1051D0000006000007E00007FE00041FE00001F8E1
:1051E0000000380001E0043E0007C0000600000493
:1051F000000004000007E00007FFC0041FF80007DC
:10520000C007F80007FF80043FF80007C004F8005B
:105210000700000400000000000400080600180752
:10522000C07805F1C8003E00001F800463E80780D5
:10523000F806001804000800000004000006000042
:1052400007800007E008047C08001FF80007F8004A
:10525000180804E008070000060000040000000031
:10526000000100080600380400F80403E8040F08F1
:10527000047C0805F00807C0080700180400600057
:10528000000000000000000000000000000000001E
:10529000003FFFFE2000022000022000022000024A
:1052A00020000200000000000000000008000007CD
:1052B000000000C0000038000006000001C000002F
:1052C0003000000E0000010000000000000000009F
:1052D0002000022000022000022000022000023FE5
:1052E000FFFE0000000000000000000000000000C1
:1052F0000000000000000008000010000030000066
:105300002000003000001000000800000000000035
:105310000000000001000001000001000001000089
:105320000100000100000100000100000100000177
:10533000000001000001000000000000000000204B
:10534000000020000010000010000000000000001D
:10535000000000000000000000000000000000F05D
:105360000019F8001B180022080026080024080075
:105370002410003FF8001FF800000800001800008B
:105380000004000007FFF80FFFF0001818001008D5
:10539000002008002008003018001FF0000FC00097
:1053A00000000000000007C0001FF00018300020BF
:1053B00008002008002008003C08001C10000060C5
:1053C0000000000000000000000007C0001FF00007
:1053D000381800200800200800200804101007FFDB
:1053E000F80FFFF0000010000000000000000000B7
:1053F0000007C0001FF00012300022180022080031
:105400002208003208001E10000E200000000000DC
:105410000000200000200800200801FFF803FFF82A
:1054200006200804200804200807200003000000CC
:10543000000000000000000E000E6E001FF300319F
:10544000B10020B10020B1003191001F13002E1EC9
:1054500000200E00300000000004000807FFF80FD5
:10546000FFF8001008002000002000002008003F86
:10547000F8001FF800000800000000000000000015
:10548000002008002008002008063FF8063FF8002A
:1054900000080000080000080000000000000000F4
:1054A00000000000000003000003002001002001B4
:1054B000002003063FFE063FFC0000000000000045
:1054C000000000000004000807FFF80FFFF80001CB
:1054D00088000300002FC00038F8002038002008A2
:1054E00000000800000000000000000004000804A4
:1054F000000804000807FFF80FFFF800000800008C
:1055000008000008000000000000002008003FF82C
:10551000003FF8001008002000003FF8003FF800AE
:105520001008002000003FF8003FF80000080000CD
:1055300000002008003FF8003FF8001008001000AD
:10554000002000002008003FF8001FF800000800BD
:1055500000000000000007C0000FF000183000300D
:1055600008002008002008003008001830000FF064
:105570000007C0000000000000002001003FFF0005
:105580003FFF001011002009002008002008003013
:1055900038001FF0000FC00000000000000007C02E
:1055A000001FF00038180020080020080020090023
:1055B0001011001FFF003FFF00000100000000204D
:1055C00008002008002008003FF8003FF800080805
:1055D000001008002008002000003000003000000B
:1055E0000000000000000000000C78001E180033CE
:1055F000080023080021080021880021980030F0CD
:1056000000386000000000000000200000200000C2
:10561000200000FFF003FFF8002008002008002011
:105620000800003000000000000000000000200022
:10563000003FF0007FF8000018000008000008009C
:105640002010003FF8007FF0000010000000000074
:1056500000002000003000003C00003F800023F0EC
:10566000000078000070002380003C000030000043
:105670002000002000003C00003FE00023F8000074
:10568000E0002700003E00003FE00021F80001E0BC
:10569000003E00002000000000002008002008005C
:1056A0003838003E680027800003C8002CF8003816
:1056B0003800201800200800000000000000200032
:1056C000003003003C01003F830023EC0000700029
:1056D0002380003C000020000020000000000000AB
:1056E000000000000038080020380020F80023E8FF
:1056F000002F88003E0800380800201800007000C5
:105700000000000000000000000000000000000099
:10571000000008000014001FF7FC30000620000203
:105720000000000000000000000000000000000079
:105730000000000000000000FFFFFF00000000006C
:105740000000000000000000000000000000000059
:105750002000023000061FF7FC00140000080000C3
:105760000000000000000000000000000000000039
:105770000018000060000040000040000020000011
:105780001000000800000400000400000C000010DD
:105790000000000000000000000000000000000009
:1057A00000000000000000000000000000000000F9
:1057B00000000000000000000000000000000000E9
:1057C00000000000000000000000000000000000D9
:1057D00000000000000000000000000000000000C9
:1057E00000000000000000000000000000000000B9
:1057F00000000000000000000000000000000000A9
:105800000000000000000000000000000000000098
:105810000000000000000000000000000000000088
:105820000000000000000000000000000000000078
:105830000000000000000000000000000000000068
:105840000000000000000000000000000000000058
:105850000000000000000000000000000000000048
:105860000000000000000000000000000000000038
:105870000000000000000000000000000000000028
:105880000000000000000000000000000000000018
:105890000000000000000000000000000000000008
:1058A00000000000000000000000000000000000F8
:1058B00000000000000000000000000000000000E8
:1058C00000000000000000000000000000000000D8
:1058D00000000000000000000608060088430008E1
:1058E000060C0C00C24500080C182400364A0008BB
:1058F0001059000800000020B000000088080008CF
:10590000C0590008B0000020A8CB0000980800088B
:105910000000000000BD01050000000000000000C4
:105920000102030406070809000000000512000830
:10593000C5110008A8070020A847002000000000AB
:105940000000000000000000000000000000000057
:105950000000000000000000000000000000000047
:105960000000000000000000000000000000000037
:105970000000000000000000000000000000000027
:105980000000000000000000000000000000000017
:105990000000000000000000000000000000000007
:1059A000000000000000000000000000AAAAAAAA4F
:1059B00001000000000000000000000000000000E6
:040000050800018965
:00000001FF
